Component: ARM Compiler 5.06 update 6 (build 750) Tool: armlink [4d35ed]

==============================================================================

Section Cross References

    main.o(i.GATT_Initialization) refers to nrf_ble_gatt.o(i.nrf_ble_gatt_init) for nrf_ble_gatt_init
    main.o(i.GATT_Initialization) refers to app_error.o(i.app_error_handler_bare) for app_error_handler_bare
    main.o(i.GATT_Initialization) refers to nrf_ble_gatt.o(i.nrf_ble_gatt_att_mtu_central_set) for nrf_ble_gatt_att_mtu_central_set
    main.o(i.GATT_Initialization) refers to main.o(i.gatt_evt_handler) for gatt_evt_handler
    main.o(i.GATT_Initialization) refers to main.o(.bss) for .bss
    main.o(i.assert_nrf_callback) refers to app_error_handler_keil.o(.emb_text) for app_error_handler
    main.o(i.bsp_event_handler) refers to boards.o(i.bsp_board_led_invert) for bsp_board_led_invert
    main.o(i.bsp_event_handler) refers to communication.o(i.TestingFnc) for TestingFnc
    main.o(i.gatt_evt_handler) refers to nrf_log_frontend.o(i.nrf_log_frontend_std_0) for nrf_log_frontend_std_0
    main.o(i.gatt_evt_handler) refers to nrf_log_frontend.o(i.nrf_log_frontend_std_2) for nrf_log_frontend_std_2
    main.o(i.gatt_evt_handler) refers to nrf_log_frontend.o(log_const_data) for m_nrf_log_app_logs_data_const
    main.o(i.gatt_evt_handler) refers to main.o(.data) for .data
    main.o(i.main) refers to app_timer.o(i.app_timer_init) for app_timer_init
    main.o(i.main) refers to app_error.o(i.app_error_handler_bare) for app_error_handler_bare
    main.o(i.main) refers to nrf_log_frontend.o(i.nrf_log_init) for nrf_log_init
    main.o(i.main) refers to nrf_log_default_backends.o(i.nrf_log_default_backends_init) for nrf_log_default_backends_init
    main.o(i.main) refers to communication.o(i.UART_Initialization) for UART_Initialization
    main.o(i.main) refers to bsp.o(i.bsp_init) for bsp_init
==============================================================================

Removing Unused input sections from the image.

    Removing main.o(.rev16_text), (4 bytes).
    Removing main.o(.revsh_text), (4 bytes).
    Removing main.o(.rrx_text), (6 bytes).
    Removing main.o(i.GATT_Initialization), (48 bytes).
    Removing main.o(i.assert_nrf_callback), (16 bytes).
    Removing main.o(i.gatt_evt_handler), (144 bytes).
    Removing main.o(.data), (2 bytes).
    Removing communication.o(.rev16_text), (4 bytes).
    Removing communication.o(.revsh_text), (4 bytes).
    Removing communication.o(.rrx_text), (6 bytes).
    Removing communication.o(i.BLE_Discovery_Initialization), (28 bytes).
    Removing communication.o(i.BLE_NUS_UARTRxPrint), (260 bytes).
    Removing communication.o(i.BLE_NUScEvent_handler), (204 bytes).
    Removing communication.o(i.DiscoveryEvent_handler), (12 bytes).
    Removing communication.o(i.NUSc_Initialization), (32 bytes).
    Removing boards.o(.rev16_text), (4 bytes).
    Removing boards.o(.revsh_text), (4 bytes).
    Removing boards.o(.rrx_text), (6 bytes).
==============================================================================

Image Symbol Table

    Local Symbols

    Symbol Name                              Value     Ov Type        Size  Object(Section)

    ../clib/../cmprslib/zerorunl2.c          0x00000000   Number         0  __dczerorl2.o ABSOLUTE
    ../clib/microlib/ctype/ctype.c           0x00000000   Number         0  ctype_o.o ABSOLUTE
    ../clib/microlib/ctype/ctype.c           0x00000000   Number         0  islower_o.o ABSOLUTE
    ../clib/microlib/ctype/ctype.c           0x00000000   Number         0  isprint_o.o ABSOLUTE
    ../clib/microlib/ctype/ctype.c           0x00000000   Number         0  ispunct_o.o ABSOLUTE
    ../clib/microlib/ctype/ctype.c           0x00000000   Number         0  isspace_o.o ABSOLUTE
    ../clib/microlib/ctype/ctype.c           0x00000000   Number         0  isdigit_o.o ABSOLUTE
    ../clib/microlib/ctype/ctype.c           0x00000000   Number         0  isupper_o.o ABSOLUTE
    ../clib/microlib/ctype/ctype.c           0x00000000   Number         0  isxdigit_o.o ABSOLUTE
    ../clib/microlib/ctype/ctype.c           0x00000000   Number         0  iscntrl_o.o ABSOLUTE
    ../clib/microlib/ctype/ctype.c           0x00000000   Number         0  isblank_o.o ABSOLUTE
    ../clib/microlib/ctype/ctype.c           0x00000000   Number         0  isgraph_o.o ABSOLUTE
    ../clib/microlib/ctype/ctype.c           0x00000000   Number         0  isalpha_o.o ABSOLUTE
    ../clib/microlib/ctype/ctype.c           0x00000000   Number         0  isalnum_o.o ABSOLUTE
    ../clib/microlib/division.c              0x00000000   Number         0  uldiv.o ABSOLUTE
    ../clib/microlib/init/entry.s            0x00000000   Number         0  entry5.o ABSOLUTE
    ../clib/microlib/init/entry.s            0x00000000   Number         0  entry2.o ABSOLUTE
    ../clib/microlib/init/entry.s            0x00000000   Number         0  entry9a.o ABSOLUTE
    ../clib/microlib/init/entry.s            0x00000000   Number         0  entry7b.o ABSOLUTE
    ../clib/microlib/init/entry.s            0x00000000   Number         0  entry10a.o ABSOLUTE
    ../clib/microlib/init/entry.s            0x00000000   Number         0  entry9b.o ABSOLUTE
    ../clib/microlib/init/entry.s            0x00000000   Number         0  entry11b.o ABSOLUTE
    ../clib/microlib/init/entry.s            0x00000000   Number         0  entry8b.o ABSOLUTE
    ../clib/microlib/init/entry.s            0x00000000   Number         0  entry8a.o ABSOLUTE
    ../clib/microlib/init/entry.s            0x00000000   Number         0  entry7a.o ABSOLUTE
    ../clib/microlib/init/entry.s            0x00000000   Number         0  entry.o ABSOLUTE
    ../clib/microlib/init/entry.s            0x00000000   Number         0  entry11a.o ABSOLUTE
    ../clib/microlib/init/entry.s            0x00000000   Number         0  entry10b.o ABSOLUTE
    ../clib/microlib/longlong.c              0x00000000   Number         0  llshl.o ABSOLUTE
    ../clib/microlib/longlong.c              0x00000000   Number         0  llushr.o ABSOLUTE
    ../clib/microlib/string/memcmp.c         0x00000000   Number         0  memcmp.o ABSOLUTE
    ../clib/microlib/string/memcpy.c         0x00000000   Number         0  memcpyb.o ABSOLUTE
    ../clib/microlib/string/memcpy.c         0x00000000   Number         0  memcpya.o ABSOLUTE
    ../clib/microlib/string/memset.c         0x00000000   Number         0  memseta.o ABSOLUTE
    ../clib/microlib/string/strcpy.c         0x00000000   Number         0  strcpy.o ABSOLUTE
    ../clib/microlib/string/strlen.c         0x00000000   Number         0  strlen.o ABSOLUTE
    ..\Driver\Boards\boards.c                0x00000000   Number         0  boards.o ABSOLUTE
    ..\Driver\Libraries\Bluetooth\BLE_Service\ble_nus_c.c 0x00000000   Number         0  ble_nus_c.o ABSOLUTE
    ..\Driver\Libraries\Bluetooth\ble_advdata.c 0x00000000   Number         0  ble_advdata.o ABSOLUTE
    ..\Driver\Libraries\Bluetooth\ble_db_discovery.c 0x00000000   Number         0  ble_db_discovery.o ABSOLUTE
    ..\Driver\Libraries\Bluetooth\ble_srv_common.c 0x00000000   Number         0  ble_srv_common.o ABSOLUTE
    ..\Driver\Libraries\Bluetooth\nrf_ble_gatt.c 0x00000000   Number         0  nrf_ble_gatt.o ABSOLUTE
    ..\Driver\Libraries\Bluetooth\nrf_ble_scan.c 0x00000000   Number         0  nrf_ble_scan.o ABSOLUTE
    ..\Driver\Libraries\Components\Atomic\nrf_atomic.c 0x00000000   Number         0  nrf_atomic.o ABSOLUTE
    ..\Driver\Libraries\Components\Atomic_FIFO\nrf_atfifo.c 0x00000000   Number         0  nrf_atfifo.o ABSOLUTE
    ..\Driver\Libraries\Components\BSP\bsp.c 0x00000000   Number         0  bsp.o ABSOLUTE
    ..\Driver\Libraries\Components\BSP\bsp_btn_ble.c 0x00000000   Number         0  bsp_btn_ble.o ABSOLUTE
    ..\Driver\Libraries\Components\Balloc\nrf_balloc.c 0x00000000   Number         0  nrf_balloc.o ABSOLUTE
    ..\Driver\Libraries\Components\Button\app_button.c 0x00000000   Number         0  app_button.o ABSOLUTE
    ..\Driver\Libraries\Components\FIFO\app_fifo.c 0x00000000   Number         0  app_fifo.o ABSOLUTE
    ..\Driver\Libraries\Components\Scheduler\app_scheduler.c 0x00000000   Number         0  app_scheduler.o ABSOLUTE
    ..\Driver\Libraries\Components\Timer\app_timer.c 0x00000000   Number         0  app_timer.o ABSOLUTE
    ..\Driver\Libraries\Components\UART\app_uart_fifo.c 0x00000000   Number         0  app_uart_fifo.o ABSOLUTE
    ..\Driver\Libraries\Components\UART\retarget.c 0x00000000   Number         0  retarget.o ABSOLUTE
    ..\Driver\Libraries\Components\Util\app_error.c 0x00000000   Number         0  app_error.o ABSOLUTE
    ..\Driver\Libraries\Components\Util\app_error_handler_keil.c 0x00000000   Number         0  app_error_handler_keil.o ABSOLUTE
    ..\Driver\Libraries\Components\Util\app_error_weak.c 0x00000000   Number         0  app_error_weak.o ABSOLUTE
    ..\Driver\Libraries\Components\Util\app_util_platform.c 0x00000000   Number         0  app_util_platform.o ABSOLUTE
    ..\Driver\Libraries\Components\Util\nrf_assert.c 0x00000000   Number         0  nrf_assert.o ABSOLUTE
    ..\Driver\Libraries\Components\experimental_section_vars\nrf_section_iter.c 0x00000000   Number         0  nrf_section_iter.o ABSOLUTE
    ..\Driver\Libraries\Components\log\nrf_log_backend_rtt.c 0x00000000   Number         0  nrf_log_backend_rtt.o ABSOLUTE
    ..\Driver\Libraries\Components\log\nrf_log_backend_serial.c 0x00000000   Number         0  nrf_log_backend_serial.o ABSOLUTE
    ..\Driver\Libraries\Components\log\nrf_log_default_backends.c 0x00000000   Number         0  nrf_log_default_backends.o ABSOLUTE
    ..\Driver\Libraries\Components\log\nrf_log_frontend.c 0x00000000   Number         0  nrf_log_frontend.o ABSOLUTE
    ..\Driver\Libraries\Components\log\nrf_log_str_formatter.c 0x00000000   Number         0  nrf_log_str_formatter.o ABSOLUTE
    ..\Driver\Libraries\Components\memobj\nrf_memobj.c 0x00000000   Number         0  nrf_memobj.o ABSOLUTE
    ..\Driver\Libraries\Components\pwr_mgmt\nrf_pwr_mgmt.c 0x00000000   Number         0  nrf_pwr_mgmt.o ABSOLUTE
    ..\Driver\Libraries\Components\ringbuf\nrf_ringbuf.c 0x00000000   Number         0  nrf_ringbuf.o ABSOLUTE
    ..\Driver\Libraries\Components\strerror\nrf_strerror.c 0x00000000   Number         0  nrf_strerror.o ABSOLUTE
    ..\Driver\Libraries\Peripheral Driver\legacy\nrf_drv_clock.c 0x00000000   Number         0  nrf_drv_clock.o ABSOLUTE
    ..\Driver\Libraries\Peripheral Driver\legacy\nrf_drv_uart.c 0x00000000   Number         0  nrf_drv_uart.o ABSOLUTE
    ..\Driver\Libraries\Peripheral Driver\nRFx\nrfx_atomic.c 0x00000000   Number         0  nrfx_atomic.o ABSOLUTE
    ..\Driver\Libraries\Peripheral Driver\nRFx\nrfx_clock.c 0x00000000   Number         0  nrfx_clock.o ABSOLUTE
    ..\Driver\Libraries\Peripheral Driver\nRFx\nrfx_gpiote.c 0x00000000   Number         0  nrfx_gpiote.o ABSOLUTE
    ..\Driver\Libraries\Peripheral Driver\nRFx\nrfx_prs.c 0x00000000   Number         0  nrfx_prs.o ABSOLUTE
    ..\Driver\Libraries\Peripheral Driver\nRFx\nrfx_uart.c 0x00000000   Number         0  nrfx_uart.o ABSOLUTE
    ..\Driver\Libraries\Peripheral Driver\nRFx\nrfx_uarte.c 0x00000000   Number         0  nrfx_uarte.o ABSOLUTE
    ..\Driver\Libraries\SoftDevice\common\nrf_sdh.c 0x00000000   Number         0  nrf_sdh.o ABSOLUTE
    ..\Driver\Libraries\SoftDevice\common\nrf_sdh_ble.c 0x00000000   Number         0  nrf_sdh_ble.o ABSOLUTE
    ..\Driver\Libraries\SoftDevice\common\nrf_sdh_soc.c 0x00000000   Number         0  nrf_sdh_soc.o ABSOLUTE
    ..\Driver\ThirdParty\Segger_RTT\SEGGER_RTT.c 0x00000000   Number         0  segger_rtt.o ABSOLUTE
    ..\Driver\ThirdParty\Segger_RTT\SEGGER_RTT_Syscalls_KEIL.c 0x00000000   Number         0  segger_rtt_syscalls_keil.o ABSOLUTE
    ..\Driver\ThirdParty\Segger_RTT\SEGGER_RTT_printf.c 0x00000000   Number         0  segger_rtt_printf.o ABSOLUTE
    ..\Driver\ThirdParty\fprintf\nrf_fprintf.c 0x00000000   Number         0  nrf_fprintf.o ABSOLUTE
    ..\Driver\ThirdParty\fprintf\nrf_fprintf_format.c 0x00000000   Number         0  nrf_fprintf_format.o ABSOLUTE
    ..\Source\Communication.c                0x00000000   Number         0  communication.o ABSOLUTE
    ..\Source\main.c                         0x00000000   Number         0  main.o ABSOLUTE
    ..\\Driver\\Boards\\boards.c             0x00000000   Number         0  boards.o ABSOLUTE
    ..\\Driver\\Libraries\\Bluetooth\\BLE_Service\\ble_nus_c.c 0x00000000   Number         0  ble_nus_c.o ABSOLUTE
    ..\\Driver\\Libraries\\Bluetooth\\ble_advdata.c 0x00000000   Number         0  ble_advdata.o ABSOLUTE
    ..\\Driver\\Libraries\\Bluetooth\\ble_db_discovery.c 0x00000000   Number         0  ble_db_discovery.o ABSOLUTE
    ..\\Driver\\Libraries\\Bluetooth\\ble_srv_common.c 0x00000000   Number         0  ble_srv_common.o ABSOLUTE
    ..\\Driver\\Libraries\\Bluetooth\\nrf_ble_gatt.c 0x00000000   Number         0  nrf_ble_gatt.o ABSOLUTE
    ..\\Driver\\Libraries\\Bluetooth\\nrf_ble_scan.c 0x00000000   Number         0  nrf_ble_scan.o ABSOLUTE
    ..\\Driver\\Libraries\\Components\\Atomic\\nrf_atomic.c 0x00000000   Number         0  nrf_atomic.o ABSOLUTE
    ..\\Driver\\Libraries\\Components\\Atomic_FIFO\\nrf_atfifo.c 0x00000000   Number         0  nrf_atfifo.o ABSOLUTE
    ..\\Driver\\Libraries\\Components\\BSP\\bsp.c 0x00000000   Number         0  bsp.o ABSOLUTE
    ..\\Driver\\Libraries\\Components\\BSP\\bsp_btn_ble.c 0x00000000   Number         0  bsp_btn_ble.o ABSOLUTE
    ..\\Driver\\Libraries\\Components\\Balloc\\nrf_balloc.c 0x00000000   Number         0  nrf_balloc.o ABSOLUTE
    ..\\Driver\\Libraries\\Components\\Button\\app_button.c 0x00000000   Number         0  app_button.o ABSOLUTE
    ..\\Driver\\Libraries\\Components\\FIFO\\app_fifo.c 0x00000000   Number         0  app_fifo.o ABSOLUTE
    ..\\Driver\\Libraries\\Components\\Scheduler\\app_scheduler.c 0x00000000   Number         0  app_scheduler.o ABSOLUTE
    ..\\Driver\\Libraries\\Components\\Timer\\app_timer.c 0x00000000   Number         0  app_timer.o ABSOLUTE
    ..\\Driver\\Libraries\\Components\\UART\\app_uart_fifo.c 0x00000000   Number         0  app_uart_fifo.o ABSOLUTE
    ..\\Driver\\Libraries\\Components\\UART\\retarget.c 0x00000000   Number         0  retarget.o ABSOLUTE
    ..\\Driver\\Libraries\\Components\\Util\\app_error.c 0x00000000   Number         0  app_error.o ABSOLUTE
    ..\\Driver\\Libraries\\Components\\Util\\app_error_handler_keil.c 0x00000000   Number         0  app_error_handler_keil.o ABSOLUTE
    ..\\Driver\\Libraries\\Components\\Util\\app_error_weak.c 0x00000000   Number         0  app_error_weak.o ABSOLUTE
    ..\\Driver\\Libraries\\Components\\Util\\app_util_platform.c 0x00000000   Number         0  app_util_platform.o ABSOLUTE
    ..\\Driver\\Libraries\\Components\\Util\\nrf_assert.c 0x00000000   Number         0  nrf_assert.o ABSOLUTE
    ..\\Driver\\Libraries\\Components\\experimental_section_vars\\nrf_section_iter.c 0x00000000   Number         0  nrf_section_iter.o ABSOLUTE
    ..\\Driver\\Libraries\\Components\\log\\nrf_log_backend_rtt.c 0x00000000   Number         0  nrf_log_backend_rtt.o ABSOLUTE
    ..\\Driver\\Libraries\\Components\\log\\nrf_log_backend_serial.c 0x00000000   Number         0  nrf_log_backend_serial.o ABSOLUTE
    ..\\Driver\\Libraries\\Components\\log\\nrf_log_default_backends.c 0x00000000   Number         0  nrf_log_default_backends.o ABSOLUTE
    ..\\Driver\\Libraries\\Components\\log\\nrf_log_frontend.c 0x00000000   Number         0  nrf_log_frontend.o ABSOLUTE
    ..\\Driver\\Libraries\\Components\\log\\nrf_log_str_formatter.c 0x00000000   Number         0  nrf_log_str_formatter.o ABSOLUTE
    ..\\Driver\\Libraries\\Components\\memobj\\nrf_memobj.c 0x00000000   Number         0  nrf_memobj.o ABSOLUTE
    ..\\Driver\\Libraries\\Components\\pwr_mgmt\\nrf_pwr_mgmt.c 0x00000000   Number         0  nrf_pwr_mgmt.o ABSOLUTE
    ..\\Driver\\Libraries\\Components\\ringbuf\\nrf_ringbuf.c 0x00000000   Number         0  nrf_ringbuf.o ABSOLUTE
    ..\\Driver\\Libraries\\Components\\strerror\\nrf_strerror.c 0x00000000   Number         0  nrf_strerror.o ABSOLUTE
    ..\\Driver\\Libraries\\Peripheral Driver\\legacy\\nrf_drv_clock.c 0x00000000   Number         0  nrf_drv_clock.o ABSOLUTE
    ..\\Driver\\Libraries\\Peripheral Driver\\legacy\\nrf_drv_uart.c 0x00000000   Number         0  nrf_drv_uart.o ABSOLUTE
    ..\\Driver\\Libraries\\Peripheral Driver\\nRFx\\nrfx_atomic.c 0x00000000   Number         0  nrfx_atomic.o ABSOLUTE
    ..\\Driver\\Libraries\\Peripheral Driver\\nRFx\\nrfx_clock.c 0x00000000   Number         0  nrfx_clock.o ABSOLUTE
    ..\\Driver\\Libraries\\Peripheral Driver\\nRFx\\nrfx_gpiote.c 0x00000000   Number         0  nrfx_gpiote.o ABSOLUTE
    ..\\Driver\\Libraries\\Peripheral Driver\\nRFx\\nrfx_prs.c 0x00000000   Number         0  nrfx_prs.o ABSOLUTE
    ..\\Driver\\Libraries\\Peripheral Driver\\nRFx\\nrfx_uart.c 0x00000000   Number         0  nrfx_uart.o ABSOLUTE
    ..\\Driver\\Libraries\\Peripheral Driver\\nRFx\\nrfx_uarte.c 0x00000000   Number         0  nrfx_uarte.o ABSOLUTE
    ..\\Driver\\Libraries\\SoftDevice\\common\\nrf_sdh.c 0x00000000   Number         0  nrf_sdh.o ABSOLUTE
    ..\\Driver\\Libraries\\SoftDevice\\common\\nrf_sdh_ble.c 0x00000000   Number         0  nrf_sdh_ble.o ABSOLUTE
    ..\\Driver\\Libraries\\SoftDevice\\common\\nrf_sdh_soc.c 0x00000000   Number         0  nrf_sdh_soc.o ABSOLUTE
    ..\\Driver\\ThirdParty\\Segger_RTT\\SEGGER_RTT.c 0x00000000   Number         0  segger_rtt.o ABSOLUTE
    ..\\Driver\\ThirdParty\\Segger_RTT\\SEGGER_RTT_printf.c 0x00000000   Number         0  segger_rtt_printf.o ABSOLUTE
    ..\\Driver\\ThirdParty\\fprintf\\nrf_fprintf.c 0x00000000   Number         0  nrf_fprintf.o ABSOLUTE
    ..\\Driver\\ThirdParty\\fprintf\\nrf_fprintf_format.c 0x00000000   Number         0  nrf_fprintf_format.o ABSOLUTE
    ..\\Source\\Communication.c              0x00000000   Number         0  communication.o ABSOLUTE
    ..\\Source\\main.c                       0x00000000   Number         0  main.o ABSOLUTE
    RTE\Device\nRF52832_xxAA\arm_startup_nrf52.s 0x00000000   Number         0  arm_startup_nrf52.o ABSOLUTE
    RTE\Device\nRF52832_xxAA\system_nrf52.c  0x00000000   Number         0  system_nrf52.o ABSOLUTE
    RTE\\Device\\nRF52832_xxAA\\system_nrf52.c 0x00000000   Number         0  system_nrf52.o ABSOLUTE
    dc.s                                     0x00000000   Number         0  dc.o ABSOLUTE
    handlers.s                               0x00000000   Number         0  handlers.o ABSOLUTE
    init.s                                   0x00000000   Number         0  init.o ABSOLUTE
    RESET                                    0x00026000   Section      512  arm_startup_nrf52.o(RESET)
    .ARM.Collect$$$$00000000                 0x00026200   Section        0  entry.o(.ARM.Collect$$$$00000000)
    .ARM.Collect$$$$00000001                 0x00026200   Section        4  entry2.o(.ARM.Collect$$$$00000001)
    .ARM.Collect$$$$00000004                 0x00026204   Section        4  entry5.o(.ARM.Collect$$$$00000004)
    .ARM.Collect$$$$00000008                 0x00026208   Section        0  entry7b.o(.ARM.Collect$$$$00000008)
    .ARM.Collect$$$$0000000A                 0x00026208   Section        0  entry8b.o(.ARM.Collect$$$$0000000A)
    .ARM.Collect$$$$0000000B                 0x00026208   Section        8  entry9a.o(.ARM.Collect$$$$0000000B)
    .ARM.Collect$$$$0000000D                 0x00026210   Section        0  entry10a.o(.ARM.Collect$$$$0000000D)
    .ARM.Collect$$$$0000000F                 0x00026210   Section        0  entry11a.o(.ARM.Collect$$$$0000000F)
    .ARM.Collect$$$$00002712                 0x00026210   Section        4  entry2.o(.ARM.Collect$$$$00002712)
    __lit__00000000                          0x00026210   Data           4  entry2.o(.ARM.Collect$$$$00002712)
    .emb_text                                0x00026214   Section      226  nrf_atomic.o(.emb_text)
    $v0                                      0x00026214   Number         0  nrf_atomic.o(.emb_text)
    .text                                    0x000262f8   Section       36  arm_startup_nrf52.o(.text)
    $v0                                      0x000262f8   Number         0  arm_startup_nrf52.o(.text)
    .text                                    0x0002631c   Section        0  uldiv.o(.text)
    .text                                    0x0002637e   Section        0  llshl.o(.text)
    .text                                    0x0002639c   Section        0  ctype_o.o(.text)
    .text                                    0x000263a4   Section        0  memcpya.o(.text)
    .text                                    0x000263c8   Section        0  memseta.o(.text)
    .text                                    0x000263ec   Section        0  strlen.o(.text)
    .text                                    0x000263fa   Section        0  memcmp.o(.text)
    .text                                    0x00026414   Section        0  strcpy.o(.text)
    .text                                    0x00026426   Section        0  llushr.o(.text)
    .text                                    0x00026448   Section       36  init.o(.text)
    .text                                    0x0002646c   Section        0  __dczerorl2.o(.text)
    i.BLEEvent_handler                       0x000264c4   Section        0  communication.o(i.BLEEvent_handler)
    BLEEvent_handler                         0x000264c5   Thumb Code    52  communication.o(i.BLEEvent_handler)
    i.BLE_ProtocolStack_Initialization       0x0002652c   Section        0  communication.o(i.BLE_ProtocolStack_Initialization)
    i.BLE_Scan_Initialization                0x0002655c   Section        0  communication.o(i.BLE_Scan_Initialization)
    i.BLE_Scan_Start                         0x00026594   Section        0  communication.o(i.BLE_Scan_Start)
    i.GPIOTE_IRQHandler                      0x000265bc   Section        0  nrfx_gpiote.o(i.GPIOTE_IRQHandler)
    i.NVIC_ClearPendingIRQ                   0x00026720   Section        0  app_timer.o(i.NVIC_ClearPendingIRQ)
    NVIC_ClearPendingIRQ                     0x00026721   Thumb Code    22  app_timer.o(i.NVIC_ClearPendingIRQ)
    i.NVIC_EnableIRQ                         0x00026736   Section        0  app_timer.o(i.NVIC_EnableIRQ)
    NVIC_EnableIRQ                           0x00026737   Thumb Code    22  app_timer.o(i.NVIC_EnableIRQ)
    i.NVIC_SetPendingIRQ                     0x0002674c   Section        0  app_timer.o(i.NVIC_SetPendingIRQ)
    NVIC_SetPendingIRQ                       0x0002674d   Thumb Code    22  app_timer.o(i.NVIC_SetPendingIRQ)
    i.NVIC_SetPriority                       0x00026762   Section        0  app_timer.o(i.NVIC_SetPriority)
    NVIC_SetPriority                         0x00026763   Thumb Code    32  app_timer.o(i.NVIC_SetPriority)
    i.POWER_CLOCK_IRQHandler                 0x00026784   Section        0  nrfx_clock.o(i.POWER_CLOCK_IRQHandler)
    i.RTC1_IRQHandler                        0x000267dc   Section        0  app_timer.o(i.RTC1_IRQHandler)
    i.SEGGER_RTT_Init                        0x00026800   Section        0  segger_rtt.o(i.SEGGER_RTT_Init)
    i.SEGGER_RTT_WriteNoLock                 0x00026804   Section        0  segger_rtt.o(i.SEGGER_RTT_WriteNoLock)
    i.SWI0_EGU0_IRQHandler                   0x00026860   Section        0  app_timer.o(i.SWI0_EGU0_IRQHandler)
    i.SWI2_EGU2_IRQHandler                   0x00026864   Section        0  nrf_sdh.o(i.SWI2_EGU2_IRQHandler)
    i.ScanEvent_handler                      0x00026868   Section        0  communication.o(i.ScanEvent_handler)
    ScanEvent_handler                        0x00026869   Thumb Code    88  communication.o(i.ScanEvent_handler)
    i.SystemInit                             0x00026908   Section        0  system_nrf52.o(i.SystemInit)
    i.TestingFnc                             0x00026c24   Section        0  communication.o(i.TestingFnc)
    i.UARTE0_UART0_IRQHandler                0x00026c8c   Section        0  nrfx_prs.o(i.UARTE0_UART0_IRQHandler)
    i.UARTEvent_handler                      0x00026c98   Section        0  communication.o(i.UARTEvent_handler)
    UARTEvent_handler                        0x00026c99   Thumb Code   148  communication.o(i.UARTEvent_handler)
    i.UART_Initialization                    0x00026dbc   Section        0  communication.o(i.UART_Initialization)
    i._DoInit                                0x00026e04   Section        0  segger_rtt.o(i._DoInit)
    _DoInit                                  0x00026e05   Thumb Code    76  segger_rtt.o(i._DoInit)
    i._GetAvailWriteSpace                    0x00026e6c   Section        0  segger_rtt.o(i._GetAvailWriteSpace)
    _GetAvailWriteSpace                      0x00026e6d   Thumb Code    22  segger_rtt.o(i._GetAvailWriteSpace)
    i._WriteBlocking                         0x00026e82   Section        0  segger_rtt.o(i._WriteBlocking)
    _WriteBlocking                           0x00026e83   Thumb Code    90  segger_rtt.o(i._WriteBlocking)
    i._WriteNoCheck                          0x00026edc   Section        0  segger_rtt.o(i._WriteNoCheck)
    _WriteNoCheck                            0x00026edd   Thumb Code    66  segger_rtt.o(i._WriteNoCheck)
    i.__scatterload_copy                     0x00026f1e   Section       14  handlers.o(i.__scatterload_copy)
    i.__scatterload_null                     0x00026f2c   Section        2  handlers.o(i.__scatterload_null)
    i.__scatterload_zeroinit                 0x00026f2e   Section       14  handlers.o(i.__scatterload_zeroinit)
    i.__sd_nvic_app_accessible_irq           0x00026f3c   Section        0  nrf_sdh.o(i.__sd_nvic_app_accessible_irq)
    __sd_nvic_app_accessible_irq             0x00026f3d   Thumb Code    32  nrf_sdh.o(i.__sd_nvic_app_accessible_irq)
    i.advertising_buttons_configure          0x00026f60   Section        0  bsp_btn_ble.o(i.advertising_buttons_configure)
    advertising_buttons_configure            0x00026f61   Thumb Code    54  bsp_btn_ble.o(i.advertising_buttons_configure)
    i.alert_timer_handler                    0x00026f96   Section        0  bsp.o(i.alert_timer_handler)
    alert_timer_handler                      0x00026f97   Thumb Code     6  bsp.o(i.alert_timer_handler)
    i.app_button_enable                      0x00026f9c   Section        0  app_button.o(i.app_button_enable)
    i.app_button_init                        0x00026fc0   Section        0  app_button.o(i.app_button_init)
    i.app_error_fault_handler                0x00027038   Section        0  app_error_weak.o(i.app_error_fault_handler)
    i.app_error_handler_bare                 0x000270bc   Section        0  app_error.o(i.app_error_handler_bare)
    i.app_fifo_get                           0x000270d2   Section        0  app_fifo.o(i.app_fifo_get)
    i.app_fifo_init                          0x000270e8   Section        0  app_fifo.o(i.app_fifo_init)
    i.app_fifo_put                           0x00027108   Section        0  app_fifo.o(i.app_fifo_put)
    i.app_timer_create                       0x00027124   Section        0  app_timer.o(i.app_timer_create)
    i.app_timer_init                         0x0002714c   Section        0  app_timer.o(i.app_timer_init)
    i.app_timer_start                        0x000271a0   Section        0  app_timer.o(i.app_timer_start)
    i.app_timer_stop                         0x00027228   Section        0  app_timer.o(i.app_timer_stop)
    i.app_uart_get                           0x00027248   Section        0  app_uart_fifo.o(i.app_uart_get)
    i.app_uart_init                          0x0002727c   Section        0  app_uart_fifo.o(i.app_uart_init)
    i.app_util_critical_region_enter         0x00027320   Section        0  app_util_platform.o(i.app_util_critical_region_enter)
    i.app_util_critical_region_exit          0x00027368   Section        0  app_util_platform.o(i.app_util_critical_region_exit)
    i.apply_config                           0x0002739c   Section        0  nrfx_uart.o(i.apply_config)
    apply_config                             0x0002739d   Thumb Code   136  nrfx_uart.o(i.apply_config)
    i.apply_config                           0x00027424   Section        0  nrfx_uarte.o(i.apply_config)
    apply_config                             0x00027425   Thumb Code   136  nrfx_uarte.o(i.apply_config)
    i.ble_advdata_search                     0x000274ac   Section        0  ble_advdata.o(i.ble_advdata_search)
    i.ble_advdata_uuid_find                  0x000274e4   Section        0  ble_advdata.o(i.ble_advdata_uuid_find)
    i.ble_db_discovery_on_ble_evt            0x0002759c   Section        0  ble_db_discovery.o(i.ble_db_discovery_on_ble_evt)
    i.ble_evt_handler                        0x0002762c   Section        0  bsp_btn_ble.o(i.ble_evt_handler)
    ble_evt_handler                          0x0002762d   Thumb Code   106  bsp_btn_ble.o(i.ble_evt_handler)
    i.ble_nus_c_on_ble_evt                   0x0002769c   Section        0  ble_nus_c.o(i.ble_nus_c_on_ble_evt)
    i.ble_nus_c_string_send                  0x00027744   Section        0  ble_nus_c.o(i.ble_nus_c_string_send)
    i.bsp_board_button_idx_to_pin            0x000277d8   Section        0  boards.o(i.bsp_board_button_idx_to_pin)
    i.bsp_board_button_state_get             0x000277e4   Section        0  boards.o(i.bsp_board_button_state_get)
    i.bsp_board_init                         0x00027804   Section        0  boards.o(i.bsp_board_init)
    i.bsp_board_led_invert                   0x00027858   Section        0  boards.o(i.bsp_board_led_invert)
    i.bsp_board_led_off                      0x0002787c   Section        0  boards.o(i.bsp_board_led_off)
    i.bsp_board_led_on                       0x0002788c   Section        0  boards.o(i.bsp_board_led_on)
    i.bsp_board_led_state_get                0x0002789c   Section        0  boards.o(i.bsp_board_led_state_get)
    i.bsp_board_leds_off                     0x000278bc   Section        0  boards.o(i.bsp_board_leds_off)
    i.bsp_board_leds_on                      0x000278ce   Section        0  boards.o(i.bsp_board_leds_on)
    i.bsp_board_pin_to_button_idx            0x000278e0   Section        0  boards.o(i.bsp_board_pin_to_button_idx)
    i.bsp_btn_ble_init                       0x00027904   Section        0  bsp_btn_ble.o(i.bsp_btn_ble_init)
    i.bsp_btn_ble_sleep_mode_prepare         0x0002793c   Section        0  bsp_btn_ble.o(i.bsp_btn_ble_sleep_mode_prepare)
    i.bsp_button_event_handler               0x0002795c   Section        0  bsp.o(i.bsp_button_event_handler)
    bsp_button_event_handler                 0x0002795d   Thumb Code   132  bsp.o(i.bsp_button_event_handler)
    i.bsp_button_is_pressed                  0x000279ec   Section        0  bsp.o(i.bsp_button_is_pressed)
    i.bsp_event_handler                      0x000279f8   Section        0  main.o(i.bsp_event_handler)
    i.bsp_event_to_button_action_assign      0x00027a1c   Section        0  bsp.o(i.bsp_event_to_button_action_assign)
    i.bsp_indication_set                     0x00027a60   Section        0  bsp.o(i.bsp_indication_set)
    i.bsp_init                               0x00027a78   Section        0  bsp.o(i.bsp_init)
    i.bsp_led_indication                     0x00027b0c   Section        0  bsp.o(i.bsp_led_indication)
    bsp_led_indication                       0x00027b0d   Thumb Code   446  bsp.o(i.bsp_led_indication)
    i.bsp_wakeup_button_enable               0x00027cd4   Section        0  bsp.o(i.bsp_wakeup_button_enable)
    i.buf_prealloc                           0x00027cdc   Section        0  nrf_log_frontend.o(i.buf_prealloc)
    buf_prealloc                             0x00027cdd   Thumb Code   138  nrf_log_frontend.o(i.buf_prealloc)
    i.buffer_add                             0x00027d6c   Section        0  nrf_fprintf_format.o(i.buffer_add)
    buffer_add                               0x00027d6d   Thumb Code    46  nrf_fprintf_format.o(i.buffer_add)
    i.buffer_is_empty                        0x00027d9c   Section        0  nrf_log_frontend.o(i.buffer_is_empty)
    i.button_timer_handler                   0x00027db0   Section        0  bsp.o(i.button_timer_handler)
    button_timer_handler                     0x00027db1   Thumb Code     8  bsp.o(i.button_timer_handler)
    i.channel_free                           0x00027db8   Section        0  nrfx_gpiote.o(i.channel_free)
    channel_free                             0x00027db9   Thumb Code    22  nrfx_gpiote.o(i.channel_free)
    i.channel_port_alloc                     0x00027dd4   Section        0  nrfx_gpiote.o(i.channel_port_alloc)
    channel_port_alloc                       0x00027dd5   Thumb Code    66  nrfx_gpiote.o(i.channel_port_alloc)
    i.channel_port_get                       0x00027e1c   Section        0  nrfx_gpiote.o(i.channel_port_get)
    channel_port_get                         0x00027e1d   Thumb Code    10  nrfx_gpiote.o(i.channel_port_get)
    i.characteristics_discover               0x00027e2c   Section        0  ble_db_discovery.o(i.characteristics_discover)
    characteristics_discover                 0x00027e2d   Thumb Code    66  ble_db_discovery.o(i.characteristics_discover)
    i.clock_clk_started_notify               0x00027e70   Section        0  nrf_drv_clock.o(i.clock_clk_started_notify)
    clock_clk_started_notify                 0x00027e71   Thumb Code    34  nrf_drv_clock.o(i.clock_clk_started_notify)
    i.clock_irq_handler                      0x00027e98   Section        0  nrf_drv_clock.o(i.clock_irq_handler)
    clock_irq_handler                        0x00027e99   Thumb Code    24  nrf_drv_clock.o(i.clock_irq_handler)
    i.compare_reg_update                     0x00027eb4   Section        0  app_timer.o(i.compare_reg_update)
    compare_reg_update                       0x00027eb5   Thumb Code   160  app_timer.o(i.compare_reg_update)
    i.data_length_update                     0x00027f60   Section        0  nrf_ble_gatt.o(i.data_length_update)
    data_length_update                       0x00027f61   Thumb Code   128  nrf_ble_gatt.o(i.data_length_update)
    i.descriptors_discover                   0x00028060   Section        0  ble_db_discovery.o(i.descriptors_discover)
    descriptors_discover                     0x00028061   Thumb Code   140  ble_db_discovery.o(i.descriptors_discover)
    i.detection_delay_timeout_handler        0x000280ec   Section        0  app_button.o(i.detection_delay_timeout_handler)
    detection_delay_timeout_handler          0x000280ed   Thumb Code   150  app_button.o(i.detection_delay_timeout_handler)
    i.discovery_complete_evt_trigger         0x00028188   Section        0  ble_db_discovery.o(i.discovery_complete_evt_trigger)
    discovery_complete_evt_trigger           0x00028189   Thumb Code   134  ble_db_discovery.o(i.discovery_complete_evt_trigger)
    i.discovery_error_evt_trigger            0x00028218   Section        0  ble_db_discovery.o(i.discovery_error_evt_trigger)
    discovery_error_evt_trigger              0x00028219   Thumb Code    56  ble_db_discovery.o(i.discovery_error_evt_trigger)
    i.discovery_start                        0x00028254   Section        0  ble_db_discovery.o(i.discovery_start)
    discovery_start                          0x00028255   Thumb Code   106  ble_db_discovery.o(i.discovery_start)
    i.dropped_sat16_get                      0x000282d4   Section        0  nrf_log_frontend.o(i.dropped_sat16_get)
    dropped_sat16_get                        0x000282d5   Thumb Code    16  nrf_log_frontend.o(i.dropped_sat16_get)
    i.elapsed_ticks_acquire                  0x000282e8   Section        0  app_timer.o(i.elapsed_ticks_acquire)
    elapsed_ticks_acquire                    0x000282e9   Thumb Code    58  app_timer.o(i.elapsed_ticks_acquire)
    i.fifo_get                               0x00028328   Section        0  app_fifo.o(i.fifo_get)
    fifo_get                                 0x00028329   Thumb Code    20  app_fifo.o(i.fifo_get)
    i.fifo_put                               0x0002833c   Section        0  app_fifo.o(i.fifo_put)
    fifo_put                                 0x0002833d   Thumb Code    18  app_fifo.o(i.fifo_put)
    i.gpiote_event_handler                   0x00028350   Section        0  app_button.o(i.gpiote_event_handler)
    gpiote_event_handler                     0x00028351   Thumb Code   122  app_button.o(i.gpiote_event_handler)
    i.int_print                              0x000283d4   Section        0  nrf_fprintf_format.o(i.int_print)
    int_print                                0x000283d5   Thumb Code   166  nrf_fprintf_format.o(i.int_print)
    i.interrupts_enable                      0x0002847c   Section        0  nrfx_uarte.o(i.interrupts_enable)
    interrupts_enable                        0x0002847d   Thumb Code   118  nrfx_uarte.o(i.interrupts_enable)
    i.invalid_packets_omit                   0x000284f8   Section        0  nrf_log_frontend.o(i.invalid_packets_omit)
    invalid_packets_omit                     0x000284f9   Thumb Code    52  nrf_log_frontend.o(i.invalid_packets_omit)
    i.is_desc_discovery_reqd                 0x0002852c   Section        0  ble_db_discovery.o(i.is_desc_discovery_reqd)
    is_desc_discovery_reqd                   0x0002852d   Thumb Code    76  ble_db_discovery.o(i.is_desc_discovery_reqd)
    i.is_whitelist_used                      0x00028578   Section        0  nrf_ble_scan.o(i.is_whitelist_used)
    i.leds_off                               0x00028590   Section        0  bsp.o(i.leds_off)
    leds_off                                 0x00028591   Thumb Code    42  bsp.o(i.leds_off)
    i.leds_timer_handler                     0x000285c0   Section        0  bsp.o(i.leds_timer_handler)
    leds_timer_handler                       0x000285c1   Thumb Code    16  bsp.o(i.leds_timer_handler)
    i.link_init                              0x000285d4   Section        0  nrf_ble_gatt.o(i.link_init)
    link_init                                0x000285d5   Thumb Code    24  nrf_ble_gatt.o(i.link_init)
    i.list_insertions_handler                0x000285ec   Section        0  app_timer.o(i.list_insertions_handler)
    list_insertions_handler                  0x000285ed   Thumb Code   234  app_timer.o(i.list_insertions_handler)
    i.log_skip                               0x000286e4   Section        0  nrf_log_frontend.o(i.log_skip)
    log_skip                                 0x000286e5   Thumb Code   148  nrf_log_frontend.o(i.log_skip)
    i.main                                   0x00028780   Section        0  main.o(i.main)
    i.memobj_op                              0x00028854   Section        0  nrf_memobj.o(i.memobj_op)
    memobj_op                                0x00028855   Thumb Code   126  nrf_memobj.o(i.memobj_op)
    i.module_idx_get                         0x000288d4   Section        0  nrf_log_frontend.o(i.module_idx_get)
    module_idx_get                           0x000288d5   Thumb Code    42  nrf_log_frontend.o(i.module_idx_get)
    i.nrf_atomic_flag_clear_fetch            0x00028904   Section        0  nrf_atomic.o(i.nrf_atomic_flag_clear_fetch)
    i.nrf_atomic_flag_set                    0x0002890a   Section        0  nrf_atomic.o(i.nrf_atomic_flag_set)
    i.nrf_atomic_u32_add                     0x00028910   Section        0  nrf_atomic.o(i.nrf_atomic_u32_add)
    i.nrf_atomic_u32_fetch_and               0x0002891c   Section        0  nrf_atomic.o(i.nrf_atomic_u32_fetch_and)
    i.nrf_atomic_u32_fetch_store             0x00028926   Section        0  nrf_atomic.o(i.nrf_atomic_u32_fetch_store)
    i.nrf_atomic_u32_or                      0x00028930   Section        0  nrf_atomic.o(i.nrf_atomic_u32_or)
    i.nrf_atomic_u32_sub                     0x0002893c   Section        0  nrf_atomic.o(i.nrf_atomic_u32_sub)
    i.nrf_balloc_alloc                       0x00028948   Section        0  nrf_balloc.o(i.nrf_balloc_alloc)
    i.nrf_balloc_free                        0x0002898c   Section        0  nrf_balloc.o(i.nrf_balloc_free)
    i.nrf_balloc_init                        0x000289bc   Section        0  nrf_balloc.o(i.nrf_balloc_init)
    i.nrf_bitmask_bit_is_set                 0x000289ec   Section        0  nrfx_gpiote.o(i.nrf_bitmask_bit_is_set)
    nrf_bitmask_bit_is_set                   0x000289ed   Thumb Code    16  nrfx_gpiote.o(i.nrf_bitmask_bit_is_set)
    i.nrf_bitmask_bit_set                    0x000289fc   Section        0  nrfx_gpiote.o(i.nrf_bitmask_bit_set)
    nrf_bitmask_bit_set                      0x000289fd   Thumb Code    20  nrfx_gpiote.o(i.nrf_bitmask_bit_set)
    i.nrf_ble_gatt_on_ble_evt                0x00028a10   Section        0  nrf_ble_gatt.o(i.nrf_ble_gatt_on_ble_evt)
    i.nrf_ble_scan_connect_with_target       0x00028afc   Section        0  nrf_ble_scan.o(i.nrf_ble_scan_connect_with_target)
    nrf_ble_scan_connect_with_target         0x00028afd   Thumb Code   110  nrf_ble_scan.o(i.nrf_ble_scan_connect_with_target)
    i.nrf_ble_scan_default_conn_param_set    0x00028b98   Section        0  nrf_ble_scan.o(i.nrf_ble_scan_default_conn_param_set)
    nrf_ble_scan_default_conn_param_set      0x00028b99   Thumb Code    20  nrf_ble_scan.o(i.nrf_ble_scan_default_conn_param_set)
    i.nrf_ble_scan_default_param_set         0x00028bac   Section        0  nrf_ble_scan.o(i.nrf_ble_scan_default_param_set)
    nrf_ble_scan_default_param_set           0x00028bad   Thumb Code    30  nrf_ble_scan.o(i.nrf_ble_scan_default_param_set)
    i.nrf_ble_scan_init                      0x00028bca   Section        0  nrf_ble_scan.o(i.nrf_ble_scan_init)
    i.nrf_ble_scan_on_adv_report             0x00028c36   Section        0  nrf_ble_scan.o(i.nrf_ble_scan_on_adv_report)
    nrf_ble_scan_on_adv_report               0x00028c37   Thumb Code   252  nrf_ble_scan.o(i.nrf_ble_scan_on_adv_report)
    i.nrf_ble_scan_on_ble_evt                0x00028d34   Section        0  nrf_ble_scan.o(i.nrf_ble_scan_on_ble_evt)
    i.nrf_ble_scan_start                     0x00028e14   Section        0  nrf_ble_scan.o(i.nrf_ble_scan_start)
    i.nrf_clock_event_check                  0x00028eb4   Section        0  nrfx_clock.o(i.nrf_clock_event_check)
    nrf_clock_event_check                    0x00028eb5   Thumb Code    14  nrfx_clock.o(i.nrf_clock_event_check)
    i.nrf_clock_event_clear                  0x00028ec2   Section        0  nrfx_clock.o(i.nrf_clock_event_clear)
    nrf_clock_event_clear                    0x00028ec3   Thumb Code    16  nrfx_clock.o(i.nrf_clock_event_clear)
    i.nrf_drv_clock_init                     0x00028ed4   Section        0  nrf_drv_clock.o(i.nrf_drv_clock_init)
    i.nrf_drv_clock_lfclk_release            0x00028f0c   Section        0  nrf_drv_clock.o(i.nrf_drv_clock_lfclk_release)
    i.nrf_drv_uart_init                      0x00028f3c   Section        0  nrf_drv_uart.o(i.nrf_drv_uart_init)
    i.nrf_drv_uart_rx                        0x00028fa4   Section        0  app_uart_fifo.o(i.nrf_drv_uart_rx)
    nrf_drv_uart_rx                          0x00028fa5   Thumb Code    26  app_uart_fifo.o(i.nrf_drv_uart_rx)
    i.nrf_drv_uart_tx                        0x00028fc4   Section        0  app_uart_fifo.o(i.nrf_drv_uart_tx)
    nrf_drv_uart_tx                          0x00028fc5   Thumb Code    26  app_uart_fifo.o(i.nrf_drv_uart_tx)
    i.nrf_fprintf                            0x00028fe4   Section        0  nrf_fprintf.o(i.nrf_fprintf)
    i.nrf_fprintf_buffer_flush               0x00028ffe   Section        0  nrf_fprintf.o(i.nrf_fprintf_buffer_flush)
    i.nrf_fprintf_fmt                        0x00029016   Section        0  nrf_fprintf_format.o(i.nrf_fprintf_fmt)
    i.nrf_gpio_cfg                           0x000291f0   Section        0  boards.o(i.nrf_gpio_cfg)
    nrf_gpio_cfg                             0x000291f1   Thumb Code    36  boards.o(i.nrf_gpio_cfg)
    i.nrf_gpio_cfg                           0x00029214   Section        0  nrfx_gpiote.o(i.nrf_gpio_cfg)
    nrf_gpio_cfg                             0x00029215   Thumb Code    36  nrfx_gpiote.o(i.nrf_gpio_cfg)
    i.nrf_gpio_cfg                           0x00029238   Section        0  nrfx_uart.o(i.nrf_gpio_cfg)
    nrf_gpio_cfg                             0x00029239   Thumb Code    36  nrfx_uart.o(i.nrf_gpio_cfg)
    i.nrf_gpio_cfg                           0x0002925c   Section        0  nrfx_uarte.o(i.nrf_gpio_cfg)
    nrf_gpio_cfg                             0x0002925d   Thumb Code    36  nrfx_uarte.o(i.nrf_gpio_cfg)
    i.nrf_gpio_cfg_input                     0x00029280   Section        0  nrfx_uart.o(i.nrf_gpio_cfg_input)
    nrf_gpio_cfg_input                       0x00029281   Thumb Code    18  nrfx_uart.o(i.nrf_gpio_cfg_input)
    i.nrf_gpio_cfg_input                     0x00029292   Section        0  nrfx_uarte.o(i.nrf_gpio_cfg_input)
    nrf_gpio_cfg_input                       0x00029293   Thumb Code    18  nrfx_uarte.o(i.nrf_gpio_cfg_input)
    i.nrf_gpio_cfg_output                    0x000292a4   Section        0  nrfx_uart.o(i.nrf_gpio_cfg_output)
    nrf_gpio_cfg_output                      0x000292a5   Thumb Code    20  nrfx_uart.o(i.nrf_gpio_cfg_output)
    i.nrf_gpio_cfg_output                    0x000292b8   Section        0  nrfx_uarte.o(i.nrf_gpio_cfg_output)
    nrf_gpio_cfg_output                      0x000292b9   Thumb Code    20  nrfx_uarte.o(i.nrf_gpio_cfg_output)
    i.nrf_gpio_cfg_sense_set                 0x000292cc   Section        0  nrfx_gpiote.o(i.nrf_gpio_cfg_sense_set)
    nrf_gpio_cfg_sense_set                   0x000292cd   Thumb Code    34  nrfx_gpiote.o(i.nrf_gpio_cfg_sense_set)
    i.nrf_gpio_pin_write                     0x000292ee   Section        0  boards.o(i.nrf_gpio_pin_write)
    nrf_gpio_pin_write                       0x000292ef   Thumb Code    22  boards.o(i.nrf_gpio_pin_write)
    i.nrf_gpio_ports_read                    0x00029304   Section        0  nrfx_gpiote.o(i.nrf_gpio_ports_read)
    nrf_gpio_ports_read                      0x00029305   Thumb Code    34  nrfx_gpiote.o(i.nrf_gpio_ports_read)
    i.nrf_gpiote_event_clear                 0x0002932c   Section        0  nrfx_gpiote.o(i.nrf_gpiote_event_clear)
    nrf_gpiote_event_clear                   0x0002932d   Thumb Code    16  nrfx_gpiote.o(i.nrf_gpiote_event_clear)
    i.nrf_gpiote_event_is_set                0x00029340   Section        0  nrfx_gpiote.o(i.nrf_gpiote_event_is_set)
    nrf_gpiote_event_is_set                  0x00029341   Thumb Code    12  nrfx_gpiote.o(i.nrf_gpiote_event_is_set)
    i.nrf_log_backend_add                    0x00029350   Section        0  nrf_log_frontend.o(i.nrf_log_backend_add)
    i.nrf_log_backend_rtt_flush              0x000293ac   Section        0  nrf_log_backend_rtt.o(i.nrf_log_backend_rtt_flush)
    nrf_log_backend_rtt_flush                0x000293ad   Thumb Code     2  nrf_log_backend_rtt.o(i.nrf_log_backend_rtt_flush)
    i.nrf_log_backend_rtt_init               0x000293ae   Section        0  nrf_log_backend_rtt.o(i.nrf_log_backend_rtt_init)
    i.nrf_log_backend_rtt_panic_set          0x000293b2   Section        0  nrf_log_backend_rtt.o(i.nrf_log_backend_rtt_panic_set)
    nrf_log_backend_rtt_panic_set            0x000293b3   Thumb Code     2  nrf_log_backend_rtt.o(i.nrf_log_backend_rtt_panic_set)
    i.nrf_log_backend_rtt_put                0x000293b4   Section        0  nrf_log_backend_rtt.o(i.nrf_log_backend_rtt_put)
    nrf_log_backend_rtt_put                  0x000293b5   Thumb Code    16  nrf_log_backend_rtt.o(i.nrf_log_backend_rtt_put)
    i.nrf_log_backend_serial_put             0x000293cc   Section        0  nrf_log_backend_serial.o(i.nrf_log_backend_serial_put)
    i.nrf_log_color_id_get                   0x00029494   Section        0  nrf_log_frontend.o(i.nrf_log_color_id_get)
    i.nrf_log_default_backends_init          0x000294c4   Section        0  nrf_log_default_backends.o(i.nrf_log_default_backends_init)
    i.nrf_log_frontend_dequeue               0x000294e0   Section        0  nrf_log_frontend.o(i.nrf_log_frontend_dequeue)
    i.nrf_log_frontend_hexdump               0x00029714   Section        0  nrf_log_frontend.o(i.nrf_log_frontend_hexdump)
    i.nrf_log_frontend_std_0                 0x000297bc   Section        0  nrf_log_frontend.o(i.nrf_log_frontend_std_0)
    i.nrf_log_frontend_std_1                 0x000297c4   Section        0  nrf_log_frontend.o(i.nrf_log_frontend_std_1)
    i.nrf_log_frontend_std_2                 0x000297d2   Section        0  nrf_log_frontend.o(i.nrf_log_frontend_std_2)
    i.nrf_log_frontend_std_3                 0x000297e2   Section        0  nrf_log_frontend.o(i.nrf_log_frontend_std_3)
    i.nrf_log_frontend_std_6                 0x000297f4   Section        0  nrf_log_frontend.o(i.nrf_log_frontend_std_6)
    i.nrf_log_hexdump_entry_process          0x00029810   Section        0  nrf_log_str_formatter.o(i.nrf_log_hexdump_entry_process)
    i.nrf_log_init                           0x000298c0   Section        0  nrf_log_frontend.o(i.nrf_log_init)
    i.nrf_log_module_cnt_get                 0x000298fc   Section        0  nrf_log_frontend.o(i.nrf_log_module_cnt_get)
    i.nrf_log_module_name_get                0x00029910   Section        0  nrf_log_frontend.o(i.nrf_log_module_name_get)
    i.nrf_log_panic                          0x0002992c   Section        0  nrf_log_frontend.o(i.nrf_log_panic)
    i.nrf_log_std_entry_process              0x00029958   Section        0  nrf_log_str_formatter.o(i.nrf_log_std_entry_process)
    i.nrf_memobj_alloc                       0x00029a0e   Section        0  nrf_memobj.o(i.nrf_memobj_alloc)
    i.nrf_memobj_free                        0x00029a6e   Section        0  nrf_memobj.o(i.nrf_memobj_free)
    i.nrf_memobj_get                         0x00029aa0   Section        0  nrf_memobj.o(i.nrf_memobj_get)
    i.nrf_memobj_pool_init                   0x00029aa8   Section        0  nrf_memobj.o(i.nrf_memobj_pool_init)
    i.nrf_memobj_put                         0x00029aac   Section        0  nrf_memobj.o(i.nrf_memobj_put)
    i.nrf_memobj_read                        0x00029aca   Section        0  nrf_memobj.o(i.nrf_memobj_read)
    i.nrf_memobj_write                       0x00029ada   Section        0  nrf_memobj.o(i.nrf_memobj_write)
    i.nrf_pwr_mgmt_init                      0x00029aec   Section        0  nrf_pwr_mgmt.o(i.nrf_pwr_mgmt_init)
    i.nrf_pwr_mgmt_run                       0x00029b14   Section        0  nrf_pwr_mgmt.o(i.nrf_pwr_mgmt_run)
    i.nrf_ringbuf_init                       0x00029b58   Section        0  nrf_ringbuf.o(i.nrf_ringbuf_init)
    i.nrf_sdh_ble_app_ram_start_get          0x00029b74   Section        0  nrf_sdh_ble.o(i.nrf_sdh_ble_app_ram_start_get)
    i.nrf_sdh_ble_default_cfg_set            0x00029b88   Section        0  nrf_sdh_ble.o(i.nrf_sdh_ble_default_cfg_set)
    i.nrf_sdh_ble_enable                     0x00029cb8   Section        0  nrf_sdh_ble.o(i.nrf_sdh_ble_enable)
    i.nrf_sdh_ble_evts_poll                  0x00029de8   Section        0  nrf_sdh_ble.o(i.nrf_sdh_ble_evts_poll)
    nrf_sdh_ble_evts_poll                    0x00029de9   Thumb Code    88  nrf_sdh_ble.o(i.nrf_sdh_ble_evts_poll)
    i.nrf_sdh_enable_request                 0x00029e48   Section        0  nrf_sdh.o(i.nrf_sdh_enable_request)
    i.nrf_sdh_evts_poll                      0x00029ebc   Section        0  nrf_sdh.o(i.nrf_sdh_evts_poll)
    i.nrf_sdh_is_enabled                     0x00029ee0   Section        0  nrf_sdh.o(i.nrf_sdh_is_enabled)
    i.nrf_sdh_soc_evts_poll                  0x00029eec   Section        0  nrf_sdh_soc.o(i.nrf_sdh_soc_evts_poll)
    nrf_sdh_soc_evts_poll                    0x00029eed   Thumb Code    56  nrf_sdh_soc.o(i.nrf_sdh_soc_evts_poll)
    i.nrf_section_iter_init                  0x00029f28   Section        0  nrf_section_iter.o(i.nrf_section_iter_init)
    i.nrf_section_iter_item_set              0x00029f32   Section        0  nrf_section_iter.o(i.nrf_section_iter_item_set)
    nrf_section_iter_item_set                0x00029f33   Thumb Code    36  nrf_section_iter.o(i.nrf_section_iter_item_set)
    i.nrf_section_iter_next                  0x00029f56   Section        0  nrf_section_iter.o(i.nrf_section_iter_next)
    i.nrf_strerror_find                      0x00029f78   Section        0  nrf_strerror.o(i.nrf_strerror_find)
    i.nrf_strerror_get                       0x00029fb0   Section        0  nrf_strerror.o(i.nrf_strerror_get)
    i.nrf_uart_event_check                   0x00029fc4   Section        0  nrfx_uart.o(i.nrf_uart_event_check)
    nrf_uart_event_check                     0x00029fc5   Thumb Code    10  nrfx_uart.o(i.nrf_uart_event_check)
    i.nrf_uart_event_clear                   0x00029fce   Section        0  nrfx_uart.o(i.nrf_uart_event_clear)
    nrf_uart_event_clear                     0x00029fcf   Thumb Code    12  nrfx_uart.o(i.nrf_uart_event_clear)
    i.nrf_uart_int_enable_check              0x00029fda   Section        0  nrfx_uart.o(i.nrf_uart_int_enable_check)
    nrf_uart_int_enable_check                0x00029fdb   Thumb Code    12  nrfx_uart.o(i.nrf_uart_int_enable_check)
    i.nrf_uarte_event_check                  0x00029fe6   Section        0  nrfx_uarte.o(i.nrf_uarte_event_check)
    nrf_uarte_event_check                    0x00029fe7   Thumb Code    10  nrfx_uarte.o(i.nrf_uarte_event_check)
    i.nrf_uarte_event_clear                  0x00029ff0   Section        0  nrfx_uarte.o(i.nrf_uarte_event_clear)
    nrf_uarte_event_clear                    0x00029ff1   Thumb Code    12  nrfx_uarte.o(i.nrf_uarte_event_clear)
    i.nrfx_clock_enable                      0x00029ffc   Section        0  nrfx_clock.o(i.nrfx_clock_enable)
    i.nrfx_clock_init                        0x0002a028   Section        0  nrfx_clock.o(i.nrfx_clock_init)
    i.nrfx_clock_lfclk_stop                  0x0002a048   Section        0  nrfx_clock.o(i.nrfx_clock_lfclk_stop)
    i.nrfx_coredep_delay_us                  0x0002a064   Section        0  app_timer.o(i.nrfx_coredep_delay_us)
    nrfx_coredep_delay_us                    0x0002a065   Thumb Code    12  app_timer.o(i.nrfx_coredep_delay_us)
    i.nrfx_gpiote_in_event_enable            0x0002a074   Section        0  nrfx_gpiote.o(i.nrfx_gpiote_in_event_enable)
    i.nrfx_gpiote_in_init                    0x0002a118   Section        0  nrfx_gpiote.o(i.nrfx_gpiote_in_init)
    i.nrfx_gpiote_in_is_set                  0x0002a1e8   Section        0  nrfx_gpiote.o(i.nrfx_gpiote_in_is_set)
    i.nrfx_gpiote_init                       0x0002a1fc   Section        0  nrfx_gpiote.o(i.nrfx_gpiote_init)
    i.nrfx_gpiote_is_init                    0x0002a268   Section        0  nrfx_gpiote.o(i.nrfx_gpiote_is_init)
    i.nrfx_is_in_ram                         0x0002a27c   Section        0  nrfx_uarte.o(i.nrfx_is_in_ram)
    nrfx_is_in_ram                           0x0002a27d   Thumb Code    16  nrfx_uarte.o(i.nrfx_is_in_ram)
    i.nrfx_prs_acquire                       0x0002a28c   Section        0  nrfx_prs.o(i.nrfx_prs_acquire)
    i.nrfx_uart_0_irq_handler                0x0002a2c8   Section        0  nrfx_uart.o(i.nrfx_uart_0_irq_handler)
    i.nrfx_uart_init                         0x0002a2d8   Section        0  nrfx_uart.o(i.nrfx_uart_init)
    i.nrfx_uart_rx                           0x0002a3a8   Section        0  nrfx_uart.o(i.nrfx_uart_rx)
    i.nrfx_uart_tx                           0x0002a494   Section        0  nrfx_uart.o(i.nrfx_uart_tx)
    i.nrfx_uart_tx_in_progress               0x0002a538   Section        0  nrfx_uart.o(i.nrfx_uart_tx_in_progress)
    i.nrfx_uarte_0_irq_handler               0x0002a558   Section        0  nrfx_uarte.o(i.nrfx_uarte_0_irq_handler)
    i.nrfx_uarte_init                        0x0002a568   Section        0  nrfx_uarte.o(i.nrfx_uarte_init)
    i.nrfx_uarte_rx                          0x0002a5d4   Section        0  nrfx_uarte.o(i.nrfx_uarte_rx)
    i.nrfx_uarte_tx                          0x0002a6d8   Section        0  nrfx_uarte.o(i.nrfx_uarte_tx)
    i.nrfx_uarte_tx_in_progress              0x0002a768   Section        0  nrfx_uarte.o(i.nrfx_uarte_tx_in_progress)
    i.on_characteristic_discovery_rsp        0x0002a784   Section        0  ble_db_discovery.o(i.on_characteristic_discovery_rsp)
    on_characteristic_discovery_rsp          0x0002a785   Thumb Code   330  ble_db_discovery.o(i.on_characteristic_discovery_rsp)
    i.on_connected_evt                       0x0002a8e8   Section        0  nrf_ble_gatt.o(i.on_connected_evt)
    on_connected_evt                         0x0002a8e9   Thumb Code   136  nrf_ble_gatt.o(i.on_connected_evt)
    i.on_data_length_update_evt              0x0002a9f0   Section        0  nrf_ble_gatt.o(i.on_data_length_update_evt)
    on_data_length_update_evt                0x0002a9f1   Thumb Code   142  nrf_ble_gatt.o(i.on_data_length_update_evt)
    i.on_data_length_update_request_evt      0x0002ab04   Section        0  nrf_ble_gatt.o(i.on_data_length_update_request_evt)
    on_data_length_update_request_evt        0x0002ab05   Thumb Code    52  nrf_ble_gatt.o(i.on_data_length_update_request_evt)
    i.on_descriptor_discovery_rsp            0x0002ab80   Section        0  ble_db_discovery.o(i.on_descriptor_discovery_rsp)
    on_descriptor_discovery_rsp              0x0002ab81   Thumb Code   258  ble_db_discovery.o(i.on_descriptor_discovery_rsp)
    i.on_exchange_mtu_request_evt            0x0002ac94   Section        0  nrf_ble_gatt.o(i.on_exchange_mtu_request_evt)
    on_exchange_mtu_request_evt              0x0002ac95   Thumb Code   148  nrf_ble_gatt.o(i.on_exchange_mtu_request_evt)
    i.on_exchange_mtu_rsp_evt                0x0002ade0   Section        0  nrf_ble_gatt.o(i.on_exchange_mtu_rsp_evt)
    on_exchange_mtu_rsp_evt                  0x0002ade1   Thumb Code    98  nrf_ble_gatt.o(i.on_exchange_mtu_rsp_evt)
    i.on_primary_srv_discovery_rsp           0x0002ae8c   Section        0  ble_db_discovery.o(i.on_primary_srv_discovery_rsp)
    on_primary_srv_discovery_rsp             0x0002ae8d   Thumb Code   130  ble_db_discovery.o(i.on_primary_srv_discovery_rsp)
    i.on_srv_disc_completion                 0x0002af58   Section        0  ble_db_discovery.o(i.on_srv_disc_completion)
    on_srv_disc_completion                   0x0002af59   Thumb Code   146  ble_db_discovery.o(i.on_srv_disc_completion)
    i.pin_in_use_by_port                     0x0002b000   Section        0  nrfx_gpiote.o(i.pin_in_use_by_port)
    pin_in_use_by_port                       0x0002b001   Thumb Code    20  nrfx_gpiote.o(i.pin_in_use_by_port)
    i.pin_in_use_by_te                       0x0002b018   Section        0  nrfx_gpiote.o(i.pin_in_use_by_te)
    pin_in_use_by_te                         0x0002b019   Thumb Code    20  nrfx_gpiote.o(i.pin_in_use_by_te)
    i.postfix_process                        0x0002b030   Section        0  nrf_log_str_formatter.o(i.postfix_process)
    postfix_process                          0x0002b031   Thumb Code    48  nrf_log_str_formatter.o(i.postfix_process)
    i.prefix_process                         0x0002b06c   Section        0  nrf_log_str_formatter.o(i.prefix_process)
    prefix_process                           0x0002b06d   Thumb Code    90  nrf_log_str_formatter.o(i.prefix_process)
    i.prs_box_get                            0x0002b104   Section        0  nrfx_prs.o(i.prs_box_get)
    prs_box_get                              0x0002b105   Thumb Code    14  nrfx_prs.o(i.prs_box_get)
    i.registered_handler_get                 0x0002b11c   Section        0  ble_db_discovery.o(i.registered_handler_get)
    registered_handler_get                   0x0002b11d   Thumb Code    48  ble_db_discovery.o(i.registered_handler_get)
    i.rtc1_stop                              0x0002b154   Section        0  app_timer.o(i.rtc1_stop)
    rtc1_stop                                0x0002b155   Thumb Code    52  app_timer.o(i.rtc1_stop)
    i.rx_byte                                0x0002b190   Section        0  nrfx_uart.o(i.rx_byte)
    rx_byte                                  0x0002b191   Thumb Code    50  nrfx_uart.o(i.rx_byte)
    i.rx_done_event                          0x0002b1c2   Section        0  nrfx_uart.o(i.rx_done_event)
    rx_done_event                            0x0002b1c3   Thumb Code    22  nrfx_uart.o(i.rx_done_event)
    i.rx_done_event                          0x0002b1d8   Section        0  nrfx_uarte.o(i.rx_done_event)
    rx_done_event                            0x0002b1d9   Thumb Code    22  nrfx_uarte.o(i.rx_done_event)
    i.rx_enable                              0x0002b1ee   Section        0  nrfx_uart.o(i.rx_enable)
    rx_enable                                0x0002b1ef   Thumb Code    32  nrfx_uart.o(i.rx_enable)
    i.sd_state_evt_handler                   0x0002b210   Section        0  nrf_drv_clock.o(i.sd_state_evt_handler)
    sd_state_evt_handler                     0x0002b211   Thumb Code    76  nrf_drv_clock.o(i.sd_state_evt_handler)
    i.sdh_request_observer_notify            0x0002b260   Section        0  nrf_sdh.o(i.sdh_request_observer_notify)
    sdh_request_observer_notify              0x0002b261   Thumb Code    44  nrf_sdh.o(i.sdh_request_observer_notify)
    i.sdh_state_observer_notify              0x0002b290   Section        0  nrf_sdh.o(i.sdh_state_observer_notify)
    sdh_state_observer_notify                0x0002b291   Thumb Code    38  nrf_sdh.o(i.sdh_state_observer_notify)
    i.serial_tx                              0x0002b2bc   Section        0  nrf_log_backend_rtt.o(i.serial_tx)
    serial_tx                                0x0002b2bd   Thumb Code    70  nrf_log_backend_rtt.o(i.serial_tx)
    i.shutdown_handler                       0x0002b30c   Section        0  main.o(i.shutdown_handler)
    shutdown_handler                         0x0002b30d   Thumb Code    32  main.o(i.shutdown_handler)
    i.soc_evt_handler                        0x0002b32c   Section        0  nrf_drv_clock.o(i.soc_evt_handler)
    soc_evt_handler                          0x0002b32d   Thumb Code    18  nrf_drv_clock.o(i.soc_evt_handler)
    i.softdevices_evt_irq_enable             0x0002b344   Section        0  nrf_sdh.o(i.softdevices_evt_irq_enable)
    softdevices_evt_irq_enable               0x0002b345   Thumb Code    80  nrf_sdh.o(i.softdevices_evt_irq_enable)
    i.std_n                                  0x0002b39c   Section        0  nrf_log_frontend.o(i.std_n)
    std_n                                    0x0002b39d   Thumb Code   136  nrf_log_frontend.o(i.std_n)
    i.timer_list_handler                     0x0002b428   Section        0  app_timer.o(i.timer_list_handler)
    timer_list_handler                       0x0002b429   Thumb Code   122  app_timer.o(i.timer_list_handler)
    i.timer_list_insert                      0x0002b4a8   Section        0  app_timer.o(i.timer_list_insert)
    timer_list_insert                        0x0002b4a9   Thumb Code    56  app_timer.o(i.timer_list_insert)
    i.timer_list_remove                      0x0002b4e4   Section        0  app_timer.o(i.timer_list_remove)
    timer_list_remove                        0x0002b4e5   Thumb Code    88  app_timer.o(i.timer_list_remove)
    i.timer_stop_op_schedule                 0x0002b544   Section        0  app_timer.o(i.timer_stop_op_schedule)
    timer_stop_op_schedule                   0x0002b545   Thumb Code    68  app_timer.o(i.timer_stop_op_schedule)
    i.timer_timeouts_check                   0x0002b58c   Section        0  app_timer.o(i.timer_timeouts_check)
    timer_timeouts_check                     0x0002b58d   Thumb Code   106  app_timer.o(i.timer_timeouts_check)
    i.tx_byte                                0x0002b600   Section        0  nrfx_uart.o(i.tx_byte)
    tx_byte                                  0x0002b601   Thumb Code    32  nrfx_uart.o(i.tx_byte)
    i.tx_done_event                          0x0002b620   Section        0  nrfx_uart.o(i.tx_done_event)
    tx_done_event                            0x0002b621   Thumb Code    26  nrfx_uart.o(i.tx_done_event)
    i.uart_event_handler                     0x0002b63c   Section        0  app_uart_fifo.o(i.uart_event_handler)
    uart_event_handler                       0x0002b63d   Thumb Code   152  app_uart_fifo.o(i.uart_event_handler)
    i.uart_evt_handler                       0x0002b6dc   Section        0  nrf_drv_uart.o(i.uart_evt_handler)
    uart_evt_handler                         0x0002b6dd   Thumb Code    42  nrf_drv_uart.o(i.uart_evt_handler)
    i.uart_irq_handler                       0x0002b70c   Section        0  nrfx_uart.o(i.uart_irq_handler)
    uart_irq_handler                         0x0002b70d   Thumb Code   296  nrfx_uart.o(i.uart_irq_handler)
    i.uarte_evt_handler                      0x0002b834   Section        0  nrf_drv_uart.o(i.uarte_evt_handler)
    uarte_evt_handler                        0x0002b835   Thumb Code    42  nrf_drv_uart.o(i.uarte_evt_handler)
    i.uarte_irq_handler                      0x0002b864   Section        0  nrfx_uarte.o(i.uarte_irq_handler)
    uarte_irq_handler                        0x0002b865   Thumb Code   242  nrfx_uarte.o(i.uarte_irq_handler)
    i.unsigned_print                         0x0002b958   Section        0  nrf_fprintf_format.o(i.unsigned_print)
    unsigned_print                           0x0002b959   Thumb Code   176  nrf_fprintf_format.o(i.unsigned_print)
    i.user_op_alloc                          0x0002ba0c   Section        0  app_timer.o(i.user_op_alloc)
    user_op_alloc                            0x0002ba0d   Thumb Code    42  app_timer.o(i.user_op_alloc)
    i.wakeup_button_cfg                      0x0002ba3c   Section        0  bsp.o(i.wakeup_button_cfg)
    wakeup_button_cfg                        0x0002ba3d   Thumb Code    58  bsp.o(i.wakeup_button_cfg)
    .constdata                               0x0002ba78   Section       24  communication.o(.constdata)
    .constdata                               0x0002ba90   Section        8  boards.o(.constdata)
    m_board_led_list                         0x0002ba90   Data           4  boards.o(.constdata)
    m_board_btn_list                         0x0002ba94   Data           4  boards.o(.constdata)
    .constdata                               0x0002ba98   Section       44  bsp.o(.constdata)
    m_bsp_leds_tmr                           0x0002ba98   Data           4  bsp.o(.constdata)
    m_bsp_alert_tmr                          0x0002ba9c   Data           4  bsp.o(.constdata)
    m_bsp_button_tmr                         0x0002baa0   Data           4  bsp.o(.constdata)
    app_buttons                              0x0002baa4   Data          32  bsp.o(.constdata)
    .constdata                               0x0002bac4   Section      124  ble_db_discovery.o(.constdata)
    .constdata                               0x0002bb40   Section       22  nrf_ble_gatt.o(.constdata)
    .constdata                               0x0002bb58   Section       40  ble_nus_c.o(.constdata)
    .constdata                               0x0002bb80   Section        4  nrfx_gpiote.o(.constdata)
    .constdata                               0x0002bb84   Section        4  nrfx_uart.o(.constdata)
    irq_handlers                             0x0002bb84   Data           4  nrfx_uart.o(.constdata)
    .constdata                               0x0002bb88   Section        4  nrfx_uarte.o(.constdata)
    irq_handlers                             0x0002bb88   Data           4  nrfx_uarte.o(.constdata)
    .constdata                               0x0002bb8c   Section        8  app_button.o(.constdata)
    m_detection_delay_timer_id               0x0002bb90   Data           4  app_button.o(.constdata)
    .constdata                               0x0002bba0   Section        6  app_timer.o(.constdata)
    delay_machine_code                       0x0002bba0   Data           6  app_timer.o(.constdata)
    .constdata                               0x0002bba8   Section       32  app_uart_fifo.o(.constdata)
    .constdata                               0x0002bbc8   Section       16  nrf_fprintf_format.o(.constdata)
    _aV2C                                    0x0002bbc8   Data          16  nrf_fprintf_format.o(.constdata)
    .constdata                               0x0002bbd8   Section       24  nrf_pwr_mgmt.o(.constdata)
    pwr_mgmt_data_array                      0x0002bbd8   Data          24  nrf_pwr_mgmt.o(.constdata)
    .constdata                               0x0002bbf0   Section       12  nrf_pwr_mgmt.o(.constdata)
    pwr_mgmt_data                            0x0002bbf0   Data          12  nrf_pwr_mgmt.o(.constdata)
    .constdata                               0x0002bbfc   Section      316  nrf_strerror.o(.constdata)
    m_unknown_str                            0x0002bbfc   Data          19  nrf_strerror.o(.constdata)
    nrf_strerror_array                       0x0002bc10   Data         296  nrf_strerror.o(.constdata)
    .constdata                               0x0002bd38   Section       12  nrf_log_backend_rtt.o(.constdata)
    .constdata                               0x0002bd50   Section        6  nrf_log_backend_rtt.o(.constdata)
    delay_machine_code                       0x0002bd50   Data           6  nrf_log_backend_rtt.o(.constdata)
    .constdata                               0x0002bd58   Section       12  nrf_log_frontend.o(.constdata)
    m_log_push_ringbuf                       0x0002bd58   Data          12  nrf_log_frontend.o(.constdata)
    .constdata                               0x0002bd64   Section       16  nrf_sdh.o(.constdata)
    sdh_req_observers_array                  0x0002bd64   Data          16  nrf_sdh.o(.constdata)
    .constdata                               0x0002bd74   Section       40  nrf_sdh.o(.constdata)
    sdh_req_observers                        0x0002bd78   Data          12  nrf_sdh.o(.constdata)
    sdh_state_observers                      0x0002bd84   Data          12  nrf_sdh.o(.constdata)
    sdh_stack_observers                      0x0002bd90   Data          12  nrf_sdh.o(.constdata)
    .constdata                               0x0002bd9c   Section       16  nrf_sdh.o(.constdata)
    sdh_state_observers_array                0x0002bd9c   Data          16  nrf_sdh.o(.constdata)
    .constdata                               0x0002bdac   Section       16  nrf_sdh.o(.constdata)
    sdh_stack_observers_array                0x0002bdac   Data          16  nrf_sdh.o(.constdata)
    .constdata                               0x0002bdbc   Section       32  nrf_sdh_ble.o(.constdata)
    sdh_ble_observers_array                  0x0002bdbc   Data          32  nrf_sdh_ble.o(.constdata)
    .constdata                               0x0002bddc   Section       16  nrf_sdh_ble.o(.constdata)
    sdh_ble_observers                        0x0002bde0   Data          12  nrf_sdh_ble.o(.constdata)
    .constdata                               0x0002bdec   Section       16  nrf_sdh_soc.o(.constdata)
    sdh_soc_observers_array                  0x0002bdec   Data          16  nrf_sdh_soc.o(.constdata)
    .constdata                               0x0002bdfc   Section       12  nrf_sdh_soc.o(.constdata)
    sdh_soc_observers                        0x0002bdfc   Data          12  nrf_sdh_soc.o(.constdata)
    .constdata                               0x0002be08   Section      129  ctype_o.o(.constdata)
    .constdata                               0x0002be8c   Section        4  ctype_o.o(.constdata)
    table                                    0x0002be8c   Data           4  ctype_o.o(.constdata)
    .conststring                             0x0002be90   Section      324  ble_db_discovery.o(.conststring)
    .conststring                             0x0002bfd4   Section      318  nrf_ble_gatt.o(.conststring)
    .conststring                             0x0002c114   Section     1003  nrf_strerror.o(.conststring)
    .conststring                             0x0002c500   Section      102  nrf_log_str_formatter.o(.conststring)
    .conststring                             0x0002c568   Section      463  nrf_sdh_ble.o(.conststring)
    .conststrlit                             0x0002c738   Section       12  ble_db_discovery.o(.conststrlit)
    .conststrlit                             0x0002c744   Section       13  nrf_ble_gatt.o(.conststrlit)
    .conststrlit                             0x0002c754   Section        9  nrf_ble_scan.o(.conststrlit)
    .conststrlit                             0x0002c760   Section       10  ble_nus_c.o(.conststrlit)
    .conststrlit                             0x0002c76c   Section        6  nrf_drv_clock.o(.conststrlit)
    .conststrlit                             0x0002c774   Section        7  nrfx_gpiote.o(.conststrlit)
    .conststrlit                             0x0002c77c   Section        4  nrfx_prs.o(.conststrlit)
    .conststrlit                             0x0002c780   Section        5  nrfx_uart.o(.conststrlit)
    .conststrlit                             0x0002c788   Section        6  nrfx_uarte.o(.conststrlit)
    .conststrlit                             0x0002c790   Section        6  nrfx_clock.o(.conststrlit)
    .conststrlit                             0x0002c798   Section        9  nrf_pwr_mgmt.o(.conststrlit)
    .conststrlit                             0x0002c7a4   Section       16  nrf_log_default_backends.o(.conststrlit)
    .conststrlit                             0x0002c7b4   Section        4  nrf_log_frontend.o(.conststrlit)
    .conststrlit                             0x0002c7b8   Section        8  nrf_sdh.o(.conststrlit)
    .conststrlit                             0x0002c7c0   Section       12  nrf_sdh_ble.o(.conststrlit)
    .conststrlit                             0x0002c7cc   Section       12  nrf_sdh_soc.o(.conststrlit)
    log_backends                             0x0002c7f8   Section       16  nrf_log_default_backends.o(log_backends)
    __tagsym$$used                           0x0002c7f8   Number         0  nrf_log_default_backends.o(log_backends)
    rtt_log_backend                          0x0002c7f8   Data          16  nrf_log_default_backends.o(log_backends)
    log_const_data                           0x0002c808   Section        8  ble_db_discovery.o(log_const_data)
    __tagsym$$used                           0x0002c808   Number         0  ble_db_discovery.o(log_const_data)
    log_const_data                           0x0002c810   Section        8  nrf_ble_gatt.o(log_const_data)
    __tagsym$$used                           0x0002c810   Number         0  nrf_ble_gatt.o(log_const_data)
    log_const_data                           0x0002c818   Section        8  nrf_ble_scan.o(log_const_data)
    __tagsym$$used                           0x0002c818   Number         0  nrf_ble_scan.o(log_const_data)
    log_const_data                           0x0002c820   Section        8  ble_nus_c.o(log_const_data)
    __tagsym$$used                           0x0002c820   Number         0  ble_nus_c.o(log_const_data)
    log_const_data                           0x0002c828   Section        8  nrf_drv_clock.o(log_const_data)
    __tagsym$$used                           0x0002c828   Number         0  nrf_drv_clock.o(log_const_data)
    log_const_data                           0x0002c830   Section        8  nrfx_gpiote.o(log_const_data)
    __tagsym$$used                           0x0002c830   Number         0  nrfx_gpiote.o(log_const_data)
    log_const_data                           0x0002c838   Section        8  nrfx_prs.o(log_const_data)
    __tagsym$$used                           0x0002c838   Number         0  nrfx_prs.o(log_const_data)
    log_const_data                           0x0002c840   Section        8  nrfx_uart.o(log_const_data)
    __tagsym$$used                           0x0002c840   Number         0  nrfx_uart.o(log_const_data)
    log_const_data                           0x0002c848   Section        8  nrfx_uarte.o(log_const_data)
    __tagsym$$used                           0x0002c848   Number         0  nrfx_uarte.o(log_const_data)
    log_const_data                           0x0002c850   Section        8  nrfx_clock.o(log_const_data)
    __tagsym$$used                           0x0002c850   Number         0  nrfx_clock.o(log_const_data)
    log_const_data                           0x0002c858   Section        8  nrf_pwr_mgmt.o(log_const_data)
    __tagsym$$used                           0x0002c858   Number         0  nrf_pwr_mgmt.o(log_const_data)
    log_const_data                           0x0002c860   Section        8  nrf_log_frontend.o(log_const_data)
    __tagsym$$used                           0x0002c860   Number         0  nrf_log_frontend.o(log_const_data)
    log_const_data                           0x0002c868   Section        8  nrf_sdh.o(log_const_data)
    __tagsym$$used                           0x0002c868   Number         0  nrf_sdh.o(log_const_data)
    log_const_data                           0x0002c870   Section        8  nrf_sdh_ble.o(log_const_data)
    __tagsym$$used                           0x0002c870   Number         0  nrf_sdh_ble.o(log_const_data)
    log_const_data                           0x0002c878   Section        8  nrf_sdh_soc.o(log_const_data)
    __tagsym$$used                           0x0002c878   Number         0  nrf_sdh_soc.o(log_const_data)
    nrf_balloc                               0x0002c880   Section       20  nrf_log_frontend.o(nrf_balloc)
    __tagsym$$used                           0x0002c880   Number         0  nrf_log_frontend.o(nrf_balloc)
    pwr_mgmt_data1                           0x0002c894   Section        4  main.o(pwr_mgmt_data1)
    __tagsym$$used                           0x0002c894   Number         0  main.o(pwr_mgmt_data1)
    shutdown_handler_handler_function        0x0002c894   Data           4  main.o(pwr_mgmt_data1)
    sdh_ble_observers1                       0x0002c898   Section        8  main.o(sdh_ble_observers1)
    __tagsym$$used                           0x0002c898   Number         0  main.o(sdh_ble_observers1)
    m_gatt_obs                               0x0002c898   Data           8  main.o(sdh_ble_observers1)
    sdh_ble_observers1                       0x0002c8a0   Section       16  communication.o(sdh_ble_observers1)
    __tagsym$$used                           0x0002c8a0   Number         0  communication.o(sdh_ble_observers1)
    m_db_disc_obs                            0x0002c8a0   Data           8  communication.o(sdh_ble_observers1)
    __tagsym$$used                           0x0002c8a8   Number         0  communication.o(sdh_ble_observers1)
    m_scan_ble_obs                           0x0002c8a8   Data           8  communication.o(sdh_ble_observers1)
    sdh_ble_observers1                       0x0002c8b0   Section        8  bsp_btn_ble.o(sdh_ble_observers1)
    __tagsym$$used                           0x0002c8b0   Number         0  bsp_btn_ble.o(sdh_ble_observers1)
    m_ble_observer                           0x0002c8b0   Data           8  bsp_btn_ble.o(sdh_ble_observers1)
    sdh_ble_observers2                       0x0002c8b8   Section        8  communication.o(sdh_ble_observers2)
    __tagsym$$used                           0x0002c8b8   Number         0  communication.o(sdh_ble_observers2)
    m_ble_nus_c_obs                          0x0002c8b8   Data           8  communication.o(sdh_ble_observers2)
    sdh_ble_observers3                       0x0002c8c0   Section        8  communication.o(sdh_ble_observers3)
    __tagsym$$used                           0x0002c8c0   Number         0  communication.o(sdh_ble_observers3)
    m_ble_observer                           0x0002c8c0   Data           8  communication.o(sdh_ble_observers3)
    sdh_soc_observers0                       0x0002c8c8   Section        8  nrf_drv_clock.o(sdh_soc_observers0)
    __tagsym$$used                           0x0002c8c8   Number         0  nrf_drv_clock.o(sdh_soc_observers0)
    m_soc_evt_observer                       0x0002c8c8   Data           8  nrf_drv_clock.o(sdh_soc_observers0)
    sdh_stack_observers0                     0x0002c8d0   Section        8  nrf_sdh_ble.o(sdh_stack_observers0)
    __tagsym$$used                           0x0002c8d0   Number         0  nrf_sdh_ble.o(sdh_stack_observers0)
    m_nrf_sdh_ble_evts_poll                  0x0002c8d0   Data           8  nrf_sdh_ble.o(sdh_stack_observers0)
    sdh_stack_observers0                     0x0002c8d8   Section        8  nrf_sdh_soc.o(sdh_stack_observers0)
    __tagsym$$used                           0x0002c8d8   Number         0  nrf_sdh_soc.o(sdh_stack_observers0)
    m_nrf_sdh_soc_evts_poll                  0x0002c8d8   Data           8  nrf_sdh_soc.o(sdh_stack_observers0)
    sdh_state_observers0                     0x0002c8e0   Section        8  nrf_drv_clock.o(sdh_state_observers0)
    __tagsym$$used                           0x0002c8e0   Number         0  nrf_drv_clock.o(sdh_state_observers0)
    m_sd_state_observer                      0x0002c8e0   Data           8  nrf_drv_clock.o(sdh_state_observers0)
    .data                                    0x200029e0   Section      716  communication.o(.data)
    m_db_disc                                0x200029e0   Data         716  communication.o(.data)
    .data                                    0x20002cac   Section       18  communication.o(.data)
    m_ble_nus_max_data_len                   0x20002cac   Data           2  communication.o(.data)
    index                                    0x20002cae   Data           2  communication.o(.data)
    m_scan_param                             0x20002cb0   Data          14  communication.o(.data)
    .data                                    0x20002cc0   Section       16  bsp.o(.data)
    m_stable_state                           0x20002cc0   Data           1  bsp.o(.data)
    m_leds_clear                             0x20002cc1   Data           1  bsp.o(.data)
    m_alert_on                               0x20002cc2   Data           1  bsp.o(.data)
    current_long_push_pin_no                 0x20002cc3   Data           1  bsp.o(.data)
    m_indication_type                        0x20002cc4   Data           4  bsp.o(.data)
    m_registered_callback                    0x20002cc8   Data           4  bsp.o(.data)
    release_event_at_push                    0x20002ccc   Data           4  bsp.o(.data)
    .data                                    0x20002cd0   Section        8  bsp_btn_ble.o(.data)
    m_error_handler                          0x20002cd0   Data           4  bsp_btn_ble.o(.data)
    m_num_connections                        0x20002cd4   Data           4  bsp_btn_ble.o(.data)
    .data                                    0x20002cd8   Section       16  ble_db_discovery.o(.data)
    m_initialized                            0x20002cd8   Data           1  ble_db_discovery.o(.data)
    m_evt_handler                            0x20002cdc   Data           4  ble_db_discovery.o(.data)
    m_pending_usr_evt_index                  0x20002ce0   Data           4  ble_db_discovery.o(.data)
    m_num_of_handlers_reg                    0x20002ce4   Data           4  ble_db_discovery.o(.data)
    .data                                    0x20002ce8   Section       12  nrf_drv_uart.o(.data)
    m_handlers                               0x20002cec   Data           4  nrf_drv_uart.o(.data)
    m_contexts                               0x20002cf0   Data           4  nrf_drv_uart.o(.data)
    .data                                    0x20002cf4   Section        8  nrfx_prs.o(.data)
    m_prs_box_4                              0x20002cf4   Data           8  nrfx_prs.o(.data)
    .data                                    0x20002cfc   Section        8  nrfx_clock.o(.data)
    m_clock_cb                               0x20002cfc   Data           8  nrfx_clock.o(.data)
    .data                                    0x20002d08   Section       32  app_button.o(.data)
    m_button_count                           0x20002d08   Data           1  app_button.o(.data)
    mp_buttons                               0x20002d0c   Data           4  app_button.o(.data)
    m_detection_delay                        0x20002d10   Data           4  app_button.o(.data)
    m_pin_state                              0x20002d18   Data           8  app_button.o(.data)
    m_pin_transition                         0x20002d20   Data           8  app_button.o(.data)
    .data                                    0x20002d28   Section       20  app_timer.o(.data)
    m_ticks_elapsed_q_read_ind               0x20002d28   Data           1  app_timer.o(.data)
    m_ticks_elapsed_q_write_ind              0x20002d29   Data           1  app_timer.o(.data)
    m_rtc1_running                           0x20002d2a   Data           1  app_timer.o(.data)
    m_rtc1_reset                             0x20002d2b   Data           1  app_timer.o(.data)
    mp_timer_id_head                         0x20002d2c   Data           4  app_timer.o(.data)
    m_ticks_latest                           0x20002d30   Data           4  app_timer.o(.data)
    m_ticks_elapsed                          0x20002d34   Data           8  app_timer.o(.data)
    .data                                    0x20002d3c   Section       28  app_uart_fifo.o(.data)
    tx_buffer                                0x20002d3c   Data           1  app_uart_fifo.o(.data)
    rx_buffer                                0x20002d3d   Data           1  app_uart_fifo.o(.data)
    m_rx_ovf                                 0x20002d3e   Data           1  app_uart_fifo.o(.data)
    m_event_handler                          0x20002d40   Data           4  app_uart_fifo.o(.data)
    app_uart_inst                            0x20002d44   Data          20  app_uart_fifo.o(.data)
    .data                                    0x20002d58   Section        8  nrf_pwr_mgmt.o(.data)
    m_pwr_mgmt_evt                           0x20002d58   Data           1  nrf_pwr_mgmt.o(.data)
    m_shutdown_started                       0x20002d59   Data           1  nrf_pwr_mgmt.o(.data)
    m_sysoff_mtx                             0x20002d5c   Data           4  nrf_pwr_mgmt.o(.data)
    .data                                    0x20002d60   Section        1  nrf_log_backend_rtt.o(.data)
    m_host_present                           0x20002d60   Data           1  nrf_log_backend_rtt.o(.data)
    .data                                    0x20002d64   Section        8  nrf_log_default_backends.o(.data)
    log_backend_cb_rtt_log_backend           0x20002d64   Data           8  nrf_log_default_backends.o(.data)
    .data                                    0x20002d6c   Section        8  nrf_log_frontend.o(.data)
    log_mempool_nrf_balloc_pool_stack        0x20002d6c   Data           8  nrf_log_frontend.o(.data)
    .data                                    0x20002d74   Section        8  nrf_log_frontend.o(.data)
    log_mempool_nrf_balloc_cb                0x20002d74   Data           8  nrf_log_frontend.o(.data)
    .data                                    0x20002d7c   Section       64  nrf_log_str_formatter.o(.data)
    m_freq                                   0x20002d7c   Data           4  nrf_log_str_formatter.o(.data)
    m_timestamp_div                          0x20002d80   Data           4  nrf_log_str_formatter.o(.data)
    severity_names                           0x20002d84   Data          20  nrf_log_str_formatter.o(.data)
    m_colors                                 0x20002d98   Data          36  nrf_log_str_formatter.o(.data)
    .data                                    0x20002dbc   Section        3  nrf_sdh.o(.data)
    m_nrf_sdh_enabled                        0x20002dbc   Data           1  nrf_sdh.o(.data)
    m_nrf_sdh_suspended                      0x20002dbd   Data           1  nrf_sdh.o(.data)
    m_nrf_sdh_continue                       0x20002dbe   Data           1  nrf_sdh.o(.data)
    .data                                    0x20002dbf   Section        1  nrf_sdh_ble.o(.data)
    m_stack_is_enabled                       0x20002dbf   Data           1  nrf_sdh_ble.o(.data)
    .data                                    0x20002dc0   Section        4  system_nrf52.o(.data)
    __tagsym$$used                           0x20002dc0   Number         0  system_nrf52.o(.data)
    .bss                                     0x20002dc4   Section       20  main.o(.bss)
    m_gatt                                   0x20002dc4   Data          20  main.o(.bss)
    .bss                                     0x20002dd8   Section     1076  communication.o(.bss)
    rx_buf                                   0x20002dd8   Data         256  communication.o(.bss)
    tx_buf                                   0x20002ed8   Data         256  communication.o(.bss)
    data_array                               0x20002fd8   Data         244  communication.o(.bss)
    m_ble_nus_c                              0x200030cc   Data          16  communication.o(.bss)
    m_scan                                   0x200030dc   Data         304  communication.o(.bss)
    .bss                                     0x2000320c   Section       32  bsp.o(.bss)
    m_bsp_leds_tmr_data                      0x2000320c   Data          32  bsp.o(.bss)
    .bss                                     0x2000322c   Section       32  bsp.o(.bss)
    m_bsp_alert_tmr_data                     0x2000322c   Data          32  bsp.o(.bss)
    .bss                                     0x2000324c   Section       12  bsp.o(.bss)
    m_events_list                            0x2000324c   Data          12  bsp.o(.bss)
    .bss                                     0x20003258   Section       32  bsp.o(.bss)
    m_bsp_button_tmr_data                    0x20003258   Data          32  bsp.o(.bss)
    .bss                                     0x20003278   Section      792  ble_db_discovery.o(.bss)
    m_registered_handlers                    0x20003278   Data          24  ble_db_discovery.o(.bss)
    m_pending_user_evts                      0x20003290   Data         768  ble_db_discovery.o(.bss)
    .bss                                     0x20003590   Section       20  nrf_drv_clock.o(.bss)
    m_clock_cb                               0x20003590   Data          20  nrf_drv_clock.o(.bss)
    .bss                                     0x200035a4   Section       92  nrfx_gpiote.o(.bss)
    m_cb                                     0x200035a4   Data          92  nrfx_gpiote.o(.bss)
    .bss                                     0x20003600   Section       44  nrfx_uart.o(.bss)
    m_cb                                     0x20003600   Data          44  nrfx_uart.o(.bss)
    .bss                                     0x2000362c   Section       36  nrfx_uarte.o(.bss)
    m_cb                                     0x2000362c   Data          36  nrfx_uarte.o(.bss)
    .bss                                     0x20003650   Section       32  app_button.o(.bss)
    m_detection_delay_timer_id_data          0x20003650   Data          32  app_button.o(.bss)
    .bss                                     0x20003670   Section      268  app_timer.o(.bss)
    m_op_queue                               0x20003670   Data         268  app_timer.o(.bss)
    .bss                                     0x2000377c   Section       32  app_uart_fifo.o(.bss)
    m_rx_fifo                                0x2000377c   Data          16  app_uart_fifo.o(.bss)
    m_tx_fifo                                0x2000378c   Data          16  app_uart_fifo.o(.bss)
    .bss                                     0x2000379c   Section       12  app_util_platform.o(.bss)
    .bss                                     0x200037a8   Section       12  nrf_pwr_mgmt.o(.bss)
    m_handlers_iter                          0x200037a8   Data          12  nrf_pwr_mgmt.o(.bss)
    .bss                                     0x200037b4   Section       64  nrf_log_backend_rtt.o(.bss)
    m_string_buff                            0x200037b4   Data          64  nrf_log_backend_rtt.o(.bss)
    .bss                                     0x200037f4   Section      192  nrf_log_frontend.o(.bss)
    log_mempool_nrf_balloc_pool_mem          0x200037f4   Data         192  nrf_log_frontend.o(.bss)
    .bss                                     0x200038b4   Section      128  nrf_log_frontend.o(.bss)
    m_log_push_ringbuf_buf                   0x200038b4   Data         128  nrf_log_frontend.o(.bss)
    .bss                                     0x20003934   Section       24  nrf_log_frontend.o(.bss)
    m_log_push_ringbuf_cb                    0x20003934   Data          24  nrf_log_frontend.o(.bss)
    .bss                                     0x2000394c   Section     1060  nrf_log_frontend.o(.bss)
    m_log_data                               0x2000394c   Data        1060  nrf_log_frontend.o(.bss)
    .bss                                     0x20003d70   Section      648  segger_rtt.o(.bss)
    _acUpBuffer                              0x20003de8   Data         512  segger_rtt.o(.bss)
    _acDownBuffer                            0x20003fe8   Data          16  segger_rtt.o(.bss)
    STACK                                    0x20003ff8   Section     8192  arm_startup_nrf52.o(STACK)

    Global Symbols

    Symbol Name                              Value     Ov Type        Size  Object(Section)

    BuildAttributes$$THM_ISAv4$E$P$D$K$B$S$7EM$VFPi3$EXTD16$VFPS$VFMA$PE$A:L22UL41UL21$X:L11$S22US41US21$IEEE1$IW$USESV6$~STKCKD$USESV7$~SHL$OSPACE$EBA8$MICROLIB$REQ8$EABIv2 0x00000000   Number         0  anon$$obj.o ABSOLUTE
    __ARM_use_no_argv                        0x00000000   Number         0  main.o ABSOLUTE
    __cpp_initialize__aeabi_                  - Undefined Weak Reference
    __cxa_finalize                            - Undefined Weak Reference
    _clock_init                               - Undefined Weak Reference
    _microlib_exit                            - Undefined Weak Reference
    log_dynamic_data$$Base                    - Undefined Reference
    pwr_mgmt_data0$$Base                      - Undefined Reference
    pwr_mgmt_data0$$Limit                     - Undefined Reference
    pwr_mgmt_data2$$Base                      - Undefined Reference
    pwr_mgmt_data2$$Limit                     - Undefined Reference
    sdh_ble_observers0$$Base                  - Undefined Reference
    sdh_ble_observers0$$Limit                 - Undefined Reference
    sdh_req_observers0$$Base                  - Undefined Reference
    sdh_req_observers0$$Limit                 - Undefined Reference
    sdh_req_observers1$$Base                  - Undefined Reference
    sdh_req_observers1$$Limit                 - Undefined Reference
    sdh_soc_observers1$$Base                  - Undefined Reference
    sdh_soc_observers1$$Limit                 - Undefined Reference
    sdh_stack_observers1$$Base                - Undefined Reference
    sdh_stack_observers1$$Limit               - Undefined Reference
    sdh_state_observers1$$Base                - Undefined Reference
    sdh_state_observers1$$Limit               - Undefined Reference
    __Vectors_Size                           0x00000200   Number         0  arm_startup_nrf52.o ABSOLUTE
    __Vectors                                0x00026000   Data           4  arm_startup_nrf52.o(RESET)
    __Vectors_End                            0x00026200   Data           0  arm_startup_nrf52.o(RESET)
    __main                                   0x00026201   Thumb Code     0  entry.o(.ARM.Collect$$$$00000000)
    _main_stk                                0x00026201   Thumb Code     0  entry2.o(.ARM.Collect$$$$00000001)
    _main_scatterload                        0x00026205   Thumb Code     0  entry5.o(.ARM.Collect$$$$00000004)
    __main_after_scatterload                 0x00026209   Thumb Code     0  entry5.o(.ARM.Collect$$$$00000004)
    _main_clock                              0x00026209   Thumb Code     0  entry7b.o(.ARM.Collect$$$$00000008)
    _main_cpp_init                           0x00026209   Thumb Code     0  entry8b.o(.ARM.Collect$$$$0000000A)
    _main_init                               0x00026209   Thumb Code     0  entry9a.o(.ARM.Collect$$$$0000000B)
    __rt_final_cpp                           0x00026211   Thumb Code     0  entry10a.o(.ARM.Collect$$$$0000000D)
    __rt_final_exit                          0x00026211   Thumb Code     0  entry11a.o(.ARM.Collect$$$$0000000F)
    __asm___12_nrf_atomic_c_85ca2469__nrf_atomic_internal_mov 0x00026215   Thumb Code    24  nrf_atomic.o(.emb_text)
    __asm___12_nrf_atomic_c_85ca2469__nrf_atomic_internal_orr 0x0002622d   Thumb Code    26  nrf_atomic.o(.emb_text)
    __asm___12_nrf_atomic_c_85ca2469__nrf_atomic_internal_and 0x00026247   Thumb Code    26  nrf_atomic.o(.emb_text)
    __asm___12_nrf_atomic_c_85ca2469__nrf_atomic_internal_eor 0x00026261   Thumb Code    26  nrf_atomic.o(.emb_text)
    __asm___12_nrf_atomic_c_85ca2469__nrf_atomic_internal_add 0x0002627b   Thumb Code    26  nrf_atomic.o(.emb_text)
    __asm___12_nrf_atomic_c_85ca2469__nrf_atomic_internal_sub 0x00026295   Thumb Code    26  nrf_atomic.o(.emb_text)
    __asm___12_nrf_atomic_c_85ca2469__nrf_atomic_internal_cmp_exch 0x000262af   Thumb Code    42  nrf_atomic.o(.emb_text)
    __asm___12_nrf_atomic_c_85ca2469__nrf_atomic_internal_sub_hs 0x000262d9   Thumb Code    30  nrf_atomic.o(.emb_text)
    Reset_Handler                            0x000262f9   Thumb Code     8  arm_startup_nrf52.o(.text)
    NMI_Handler                              0x00026301   Thumb Code     2  arm_startup_nrf52.o(.text)
    HardFault_Handler                        0x00026303   Thumb Code     2  arm_startup_nrf52.o(.text)
    MemoryManagement_Handler                 0x00026305   Thumb Code     2  arm_startup_nrf52.o(.text)
    BusFault_Handler                         0x00026307   Thumb Code     2  arm_startup_nrf52.o(.text)
    UsageFault_Handler                       0x00026309   Thumb Code     2  arm_startup_nrf52.o(.text)
    SVC_Handler                              0x0002630b   Thumb Code     2  arm_startup_nrf52.o(.text)
    DebugMon_Handler                         0x0002630d   Thumb Code     2  arm_startup_nrf52.o(.text)
    PendSV_Handler                           0x0002630f   Thumb Code     2  arm_startup_nrf52.o(.text)
    SysTick_Handler                          0x00026311   Thumb Code     2  arm_startup_nrf52.o(.text)
    CCM_AAR_IRQHandler                       0x00026313   Thumb Code     0  arm_startup_nrf52.o(.text)
    COMP_LPCOMP_IRQHandler                   0x00026313   Thumb Code     0  arm_startup_nrf52.o(.text)
    ECB_IRQHandler                           0x00026313   Thumb Code     0  arm_startup_nrf52.o(.text)
    FPU_IRQHandler                           0x00026313   Thumb Code     0  arm_startup_nrf52.o(.text)
    I2S_IRQHandler                           0x00026313   Thumb Code     0  arm_startup_nrf52.o(.text)
    MWU_IRQHandler                           0x00026313   Thumb Code     0  arm_startup_nrf52.o(.text)
    NFCT_IRQHandler                          0x00026313   Thumb Code     0  arm_startup_nrf52.o(.text)
    PDM_IRQHandler                           0x00026313   Thumb Code     0  arm_startup_nrf52.o(.text)
    PWM0_IRQHandler                          0x00026313   Thumb Code     0  arm_startup_nrf52.o(.text)
    PWM1_IRQHandler                          0x00026313   Thumb Code     0  arm_startup_nrf52.o(.text)
    PWM2_IRQHandler                          0x00026313   Thumb Code     0  arm_startup_nrf52.o(.text)
    QDEC_IRQHandler                          0x00026313   Thumb Code     0  arm_startup_nrf52.o(.text)
    RADIO_IRQHandler                         0x00026313   Thumb Code     0  arm_startup_nrf52.o(.text)
    RNG_IRQHandler                           0x00026313   Thumb Code     0  arm_startup_nrf52.o(.text)
    RTC0_IRQHandler                          0x00026313   Thumb Code     0  arm_startup_nrf52.o(.text)
    RTC2_IRQHandler                          0x00026313   Thumb Code     0  arm_startup_nrf52.o(.text)
    SAADC_IRQHandler                         0x00026313   Thumb Code     0  arm_startup_nrf52.o(.text)
    SPIM0_SPIS0_TWIM0_TWIS0_SPI0_TWI0_IRQHandler 0x00026313   Thumb Code     0  arm_startup_nrf52.o(.text)
    SPIM1_SPIS1_TWIM1_TWIS1_SPI1_TWI1_IRQHandler 0x00026313   Thumb Code     0  arm_startup_nrf52.o(.text)
    SPIM2_SPIS2_SPI2_IRQHandler              0x00026313   Thumb Code     0  arm_startup_nrf52.o(.text)
    SWI1_EGU1_IRQHandler                     0x00026313   Thumb Code     0  arm_startup_nrf52.o(.text)
    SWI3_EGU3_IRQHandler                     0x00026313   Thumb Code     0  arm_startup_nrf52.o(.text)
    SWI4_EGU4_IRQHandler                     0x00026313   Thumb Code     0  arm_startup_nrf52.o(.text)
    SWI5_EGU5_IRQHandler                     0x00026313   Thumb Code     0  arm_startup_nrf52.o(.text)
    TEMP_IRQHandler                          0x00026313   Thumb Code     0  arm_startup_nrf52.o(.text)
    TIMER0_IRQHandler                        0x00026313   Thumb Code     0  arm_startup_nrf52.o(.text)
    TIMER1_IRQHandler                        0x00026313   Thumb Code     0  arm_startup_nrf52.o(.text)
    TIMER2_IRQHandler                        0x00026313   Thumb Code     0  arm_startup_nrf52.o(.text)
    TIMER3_IRQHandler                        0x00026313   Thumb Code     0  arm_startup_nrf52.o(.text)
    TIMER4_IRQHandler                        0x00026313   Thumb Code     0  arm_startup_nrf52.o(.text)
    WDT_IRQHandler                           0x00026313   Thumb Code     0  arm_startup_nrf52.o(.text)
    __aeabi_uldivmod                         0x0002631d   Thumb Code    98  uldiv.o(.text)
    __aeabi_llsl                             0x0002637f   Thumb Code    30  llshl.o(.text)
    _ll_shift_l                              0x0002637f   Thumb Code     0  llshl.o(.text)
    __rt_ctype_table                         0x0002639d   Thumb Code     4  ctype_o.o(.text)
    __aeabi_memcpy                           0x000263a5   Thumb Code    36  memcpya.o(.text)
    __aeabi_memcpy4                          0x000263a5   Thumb Code     0  memcpya.o(.text)
    __aeabi_memcpy8                          0x000263a5   Thumb Code     0  memcpya.o(.text)
    __aeabi_memset                           0x000263c9   Thumb Code    14  memseta.o(.text)
    __aeabi_memset4                          0x000263c9   Thumb Code     0  memseta.o(.text)
    __aeabi_memset8                          0x000263c9   Thumb Code     0  memseta.o(.text)
    __aeabi_memclr                           0x000263d7   Thumb Code     4  memseta.o(.text)
    __aeabi_memclr4                          0x000263d7   Thumb Code     0  memseta.o(.text)
    __aeabi_memclr8                          0x000263d7   Thumb Code     0  memseta.o(.text)
    _memset$wrapper                          0x000263db   Thumb Code    18  memseta.o(.text)
    strlen                                   0x000263ed   Thumb Code    14  strlen.o(.text)
    memcmp                                   0x000263fb   Thumb Code    26  memcmp.o(.text)
    strcpy                                   0x00026415   Thumb Code    18  strcpy.o(.text)
    __aeabi_llsr                             0x00026427   Thumb Code    32  llushr.o(.text)
    _ll_ushift_r                             0x00026427   Thumb Code     0  llushr.o(.text)
    __scatterload                            0x00026449   Thumb Code    28  init.o(.text)
    __scatterload_rt2                        0x00026449   Thumb Code     0  init.o(.text)
    __decompress                             0x0002646d   Thumb Code     0  __dczerorl2.o(.text)
    __decompress1                            0x0002646d   Thumb Code    86  __dczerorl2.o(.text)
    BLE_ProtocolStack_Initialization         0x0002652d   Thumb Code    46  communication.o(i.BLE_ProtocolStack_Initialization)
    BLE_Scan_Initialization                  0x0002655d   Thumb Code    44  communication.o(i.BLE_Scan_Initialization)
    BLE_Scan_Start                           0x00026595   Thumb Code    34  communication.o(i.BLE_Scan_Start)
    GPIOTE_IRQHandler                        0x000265bd   Thumb Code   346  nrfx_gpiote.o(i.GPIOTE_IRQHandler)
    POWER_CLOCK_IRQHandler                   0x00026785   Thumb Code    82  nrfx_clock.o(i.POWER_CLOCK_IRQHandler)
    RTC1_IRQHandler                          0x000267dd   Thumb Code    32  app_timer.o(i.RTC1_IRQHandler)
    SEGGER_RTT_Init                          0x00026801   Thumb Code     4  segger_rtt.o(i.SEGGER_RTT_Init)
    SEGGER_RTT_WriteNoLock                   0x00026805   Thumb Code    86  segger_rtt.o(i.SEGGER_RTT_WriteNoLock)
    SWI0_EGU0_IRQHandler                     0x00026861   Thumb Code     4  app_timer.o(i.SWI0_EGU0_IRQHandler)
    SWI2_EGU2_IRQHandler                     0x00026865   Thumb Code     4  nrf_sdh.o(i.SWI2_EGU2_IRQHandler)
    SystemInit                               0x00026909   Thumb Code   726  system_nrf52.o(i.SystemInit)
    TestingFnc                               0x00026c25   Thumb Code    52  communication.o(i.TestingFnc)
    UARTE0_UART0_IRQHandler                  0x00026c8d   Thumb Code     6  nrfx_prs.o(i.UARTE0_UART0_IRQHandler)
    UART_Initialization                      0x00026dbd   Thumb Code    54  communication.o(i.UART_Initialization)
    __scatterload_copy                       0x00026f1f   Thumb Code    14  handlers.o(i.__scatterload_copy)
    __scatterload_null                       0x00026f2d   Thumb Code     2  handlers.o(i.__scatterload_null)
    __scatterload_zeroinit                   0x00026f2f   Thumb Code    14  handlers.o(i.__scatterload_zeroinit)
    app_button_enable                        0x00026f9d   Thumb Code    32  app_button.o(i.app_button_enable)
    app_button_init                          0x00026fc1   Thumb Code   102  app_button.o(i.app_button_init)
    app_error_fault_handler                  0x00027039   Thumb Code    86  app_error_weak.o(i.app_error_fault_handler)
    app_error_handler_bare                   0x000270bd   Thumb Code    22  app_error.o(i.app_error_handler_bare)
    app_fifo_get                             0x000270d3   Thumb Code    22  app_fifo.o(i.app_fifo_get)
    app_fifo_init                            0x000270e9   Thumb Code    32  app_fifo.o(i.app_fifo_init)
    app_fifo_put                             0x00027109   Thumb Code    26  app_fifo.o(i.app_fifo_put)
    app_timer_create                         0x00027125   Thumb Code    36  app_timer.o(i.app_timer_create)
    app_timer_init                           0x0002714d   Thumb Code    70  app_timer.o(i.app_timer_init)
    app_timer_start                          0x000271a1   Thumb Code   128  app_timer.o(i.app_timer_start)
    app_timer_stop                           0x00027229   Thumb Code    26  app_timer.o(i.app_timer_stop)
    app_uart_get                             0x00027249   Thumb Code    42  app_uart_fifo.o(i.app_uart_get)
    app_uart_init                            0x0002727d   Thumb Code   148  app_uart_fifo.o(i.app_uart_init)
    app_util_critical_region_enter           0x00027321   Thumb Code    64  app_util_platform.o(i.app_util_critical_region_enter)
    app_util_critical_region_exit            0x00027369   Thumb Code    46  app_util_platform.o(i.app_util_critical_region_exit)
    ble_advdata_search                       0x000274ad   Thumb Code    56  ble_advdata.o(i.ble_advdata_search)
    ble_advdata_uuid_find                    0x000274e5   Thumb Code   182  ble_advdata.o(i.ble_advdata_uuid_find)
    ble_db_discovery_on_ble_evt              0x0002759d   Thumb Code   138  ble_db_discovery.o(i.ble_db_discovery_on_ble_evt)
    ble_nus_c_on_ble_evt                     0x0002769d   Thumb Code   134  ble_nus_c.o(i.ble_nus_c_on_ble_evt)
    ble_nus_c_string_send                    0x00027745   Thumb Code    86  ble_nus_c.o(i.ble_nus_c_string_send)
    bsp_board_button_idx_to_pin              0x000277d9   Thumb Code     6  boards.o(i.bsp_board_button_idx_to_pin)
    bsp_board_button_state_get               0x000277e5   Thumb Code    28  boards.o(i.bsp_board_button_state_get)
    bsp_board_init                           0x00027805   Thumb Code    80  boards.o(i.bsp_board_init)
    bsp_board_led_invert                     0x00027859   Thumb Code    32  boards.o(i.bsp_board_led_invert)
    bsp_board_led_off                        0x0002787d   Thumb Code    10  boards.o(i.bsp_board_led_off)
    bsp_board_led_on                         0x0002788d   Thumb Code    10  boards.o(i.bsp_board_led_on)
    bsp_board_led_state_get                  0x0002789d   Thumb Code    28  boards.o(i.bsp_board_led_state_get)
    bsp_board_leds_off                       0x000278bd   Thumb Code    18  boards.o(i.bsp_board_leds_off)
    bsp_board_leds_on                        0x000278cf   Thumb Code    18  boards.o(i.bsp_board_leds_on)
    bsp_board_pin_to_button_idx              0x000278e1   Thumb Code    30  boards.o(i.bsp_board_pin_to_button_idx)
    bsp_btn_ble_init                         0x00027905   Thumb Code    52  bsp_btn_ble.o(i.bsp_btn_ble_init)
    bsp_btn_ble_sleep_mode_prepare           0x0002793d   Thumb Code    30  bsp_btn_ble.o(i.bsp_btn_ble_sleep_mode_prepare)
    bsp_button_is_pressed                    0x000279ed   Thumb Code    12  bsp.o(i.bsp_button_is_pressed)
    bsp_event_handler                        0x000279f9   Thumb Code    36  main.o(i.bsp_event_handler)
    bsp_event_to_button_action_assign        0x00027a1d   Thumb Code    64  bsp.o(i.bsp_event_to_button_action_assign)
    bsp_indication_set                       0x00027a61   Thumb Code    20  bsp.o(i.bsp_indication_set)
    bsp_init                                 0x00027a79   Thumb Code   128  bsp.o(i.bsp_init)
    bsp_wakeup_button_enable                 0x00027cd5   Thumb Code     6  bsp.o(i.bsp_wakeup_button_enable)
    buffer_is_empty                          0x00027d9d   Thumb Code    16  nrf_log_frontend.o(i.buffer_is_empty)
    is_whitelist_used                        0x00028579   Thumb Code    22  nrf_ble_scan.o(i.is_whitelist_used)
    main                                     0x00028781   Thumb Code   130  main.o(i.main)
    nrf_atomic_flag_clear_fetch              0x00028905   Thumb Code     6  nrf_atomic.o(i.nrf_atomic_flag_clear_fetch)
    nrf_atomic_flag_set                      0x0002890b   Thumb Code     6  nrf_atomic.o(i.nrf_atomic_flag_set)
    nrf_atomic_u32_add                       0x00028911   Thumb Code    12  nrf_atomic.o(i.nrf_atomic_u32_add)
    nrf_atomic_u32_fetch_and                 0x0002891d   Thumb Code    10  nrf_atomic.o(i.nrf_atomic_u32_fetch_and)
    nrf_atomic_u32_fetch_store               0x00028927   Thumb Code    10  nrf_atomic.o(i.nrf_atomic_u32_fetch_store)
    nrf_atomic_u32_or                        0x00028931   Thumb Code    12  nrf_atomic.o(i.nrf_atomic_u32_or)
    nrf_atomic_u32_sub                       0x0002893d   Thumb Code    12  nrf_atomic.o(i.nrf_atomic_u32_sub)
    nrf_balloc_alloc                         0x00028949   Thumb Code    68  nrf_balloc.o(i.nrf_balloc_alloc)
    nrf_balloc_free                          0x0002898d   Thumb Code    48  nrf_balloc.o(i.nrf_balloc_free)
    nrf_balloc_init                          0x000289bd   Thumb Code    48  nrf_balloc.o(i.nrf_balloc_init)
    nrf_ble_gatt_on_ble_evt                  0x00028a11   Thumb Code   172  nrf_ble_gatt.o(i.nrf_ble_gatt_on_ble_evt)
    nrf_ble_scan_init                        0x00028bcb   Thumb Code   108  nrf_ble_scan.o(i.nrf_ble_scan_init)
    nrf_ble_scan_on_ble_evt                  0x00028d35   Thumb Code   192  nrf_ble_scan.o(i.nrf_ble_scan_on_ble_evt)
    nrf_ble_scan_start                       0x00028e15   Thumb Code   104  nrf_ble_scan.o(i.nrf_ble_scan_start)
    nrf_drv_clock_init                       0x00028ed5   Thumb Code    48  nrf_drv_clock.o(i.nrf_drv_clock_init)
    nrf_drv_clock_lfclk_release              0x00028f0d   Thumb Code    42  nrf_drv_clock.o(i.nrf_drv_clock_lfclk_release)
    nrf_drv_uart_init                        0x00028f3d   Thumb Code    90  nrf_drv_uart.o(i.nrf_drv_uart_init)
    nrf_fprintf                              0x00028fe5   Thumb Code    26  nrf_fprintf.o(i.nrf_fprintf)
    nrf_fprintf_buffer_flush                 0x00028fff   Thumb Code    24  nrf_fprintf.o(i.nrf_fprintf_buffer_flush)
    nrf_fprintf_fmt                          0x00029017   Thumb Code   474  nrf_fprintf_format.o(i.nrf_fprintf_fmt)
    nrf_log_backend_add                      0x00029351   Thumb Code    86  nrf_log_frontend.o(i.nrf_log_backend_add)
    nrf_log_backend_rtt_init                 0x000293af   Thumb Code     4  nrf_log_backend_rtt.o(i.nrf_log_backend_rtt_init)
    nrf_log_backend_serial_put               0x000293cd   Thumb Code   200  nrf_log_backend_serial.o(i.nrf_log_backend_serial_put)
    nrf_log_color_id_get                     0x00029495   Thumb Code    42  nrf_log_frontend.o(i.nrf_log_color_id_get)
    nrf_log_default_backends_init            0x000294c5   Thumb Code    24  nrf_log_default_backends.o(i.nrf_log_default_backends_init)
    nrf_log_frontend_dequeue                 0x000294e1   Thumb Code   528  nrf_log_frontend.o(i.nrf_log_frontend_dequeue)
    nrf_log_frontend_hexdump                 0x00029715   Thumb Code   164  nrf_log_frontend.o(i.nrf_log_frontend_hexdump)
    nrf_log_frontend_std_0                   0x000297bd   Thumb Code     8  nrf_log_frontend.o(i.nrf_log_frontend_std_0)
    nrf_log_frontend_std_1                   0x000297c5   Thumb Code    14  nrf_log_frontend.o(i.nrf_log_frontend_std_1)
    nrf_log_frontend_std_2                   0x000297d3   Thumb Code    16  nrf_log_frontend.o(i.nrf_log_frontend_std_2)
    nrf_log_frontend_std_3                   0x000297e3   Thumb Code    18  nrf_log_frontend.o(i.nrf_log_frontend_std_3)
    nrf_log_frontend_std_6                   0x000297f5   Thumb Code    28  nrf_log_frontend.o(i.nrf_log_frontend_std_6)
    nrf_log_hexdump_entry_process            0x00029811   Thumb Code   150  nrf_log_str_formatter.o(i.nrf_log_hexdump_entry_process)
    nrf_log_init                             0x000298c1   Thumb Code    46  nrf_log_frontend.o(i.nrf_log_init)
    nrf_log_module_cnt_get                   0x000298fd   Thumb Code    10  nrf_log_frontend.o(i.nrf_log_module_cnt_get)
    nrf_log_module_name_get                  0x00029911   Thumb Code    24  nrf_log_frontend.o(i.nrf_log_module_name_get)
    nrf_log_panic                            0x0002992d   Thumb Code    38  nrf_log_frontend.o(i.nrf_log_panic)
    nrf_log_std_entry_process                0x00029959   Thumb Code   182  nrf_log_str_formatter.o(i.nrf_log_std_entry_process)
    nrf_memobj_alloc                         0x00029a0f   Thumb Code    96  nrf_memobj.o(i.nrf_memobj_alloc)
    nrf_memobj_free                          0x00029a6f   Thumb Code    50  nrf_memobj.o(i.nrf_memobj_free)
    nrf_memobj_get                           0x00029aa1   Thumb Code     8  nrf_memobj.o(i.nrf_memobj_get)
    nrf_memobj_pool_init                     0x00029aa9   Thumb Code     4  nrf_memobj.o(i.nrf_memobj_pool_init)
    nrf_memobj_put                           0x00029aad   Thumb Code    30  nrf_memobj.o(i.nrf_memobj_put)
    nrf_memobj_read                          0x00029acb   Thumb Code    16  nrf_memobj.o(i.nrf_memobj_read)
    nrf_memobj_write                         0x00029adb   Thumb Code    16  nrf_memobj.o(i.nrf_memobj_write)
    nrf_pwr_mgmt_init                        0x00029aed   Thumb Code    28  nrf_pwr_mgmt.o(i.nrf_pwr_mgmt_init)
    nrf_pwr_mgmt_run                         0x00029b15   Thumb Code    64  nrf_pwr_mgmt.o(i.nrf_pwr_mgmt_run)
    nrf_ringbuf_init                         0x00029b59   Thumb Code    28  nrf_ringbuf.o(i.nrf_ringbuf_init)
    nrf_sdh_ble_app_ram_start_get            0x00029b75   Thumb Code    16  nrf_sdh_ble.o(i.nrf_sdh_ble_app_ram_start_get)
    nrf_sdh_ble_default_cfg_set              0x00029b89   Thumb Code   272  nrf_sdh_ble.o(i.nrf_sdh_ble_default_cfg_set)
    nrf_sdh_ble_enable                       0x00029cb9   Thumb Code   116  nrf_sdh_ble.o(i.nrf_sdh_ble_enable)
    nrf_sdh_enable_request                   0x00029e49   Thumb Code   102  nrf_sdh.o(i.nrf_sdh_enable_request)
    nrf_sdh_evts_poll                        0x00029ebd   Thumb Code    32  nrf_sdh.o(i.nrf_sdh_evts_poll)
    nrf_sdh_is_enabled                       0x00029ee1   Thumb Code     6  nrf_sdh.o(i.nrf_sdh_is_enabled)
    nrf_section_iter_init                    0x00029f29   Thumb Code    10  nrf_section_iter.o(i.nrf_section_iter_init)
    nrf_section_iter_next                    0x00029f57   Thumb Code    32  nrf_section_iter.o(i.nrf_section_iter_next)
    nrf_strerror_find                        0x00029f79   Thumb Code    52  nrf_strerror.o(i.nrf_strerror_find)
    nrf_strerror_get                         0x00029fb1   Thumb Code    14  nrf_strerror.o(i.nrf_strerror_get)
    nrfx_clock_enable                        0x00029ffd   Thumb Code    34  nrfx_clock.o(i.nrfx_clock_enable)
    nrfx_clock_init                          0x0002a029   Thumb Code    26  nrfx_clock.o(i.nrfx_clock_init)
    nrfx_clock_lfclk_stop                    0x0002a049   Thumb Code    20  nrfx_clock.o(i.nrfx_clock_lfclk_stop)
    nrfx_gpiote_in_event_enable              0x0002a075   Thumb Code   156  nrfx_gpiote.o(i.nrfx_gpiote_in_event_enable)
    nrfx_gpiote_in_init                      0x0002a119   Thumb Code   194  nrfx_gpiote.o(i.nrfx_gpiote_in_init)
    nrfx_gpiote_in_is_set                    0x0002a1e9   Thumb Code    20  nrfx_gpiote.o(i.nrfx_gpiote_in_is_set)
    nrfx_gpiote_init                         0x0002a1fd   Thumb Code    94  nrfx_gpiote.o(i.nrfx_gpiote_init)
    nrfx_gpiote_is_init                      0x0002a269   Thumb Code    14  nrfx_gpiote.o(i.nrfx_gpiote_is_init)
    nrfx_prs_acquire                         0x0002a28d   Thumb Code    58  nrfx_prs.o(i.nrfx_prs_acquire)
    nrfx_uart_0_irq_handler                  0x0002a2c9   Thumb Code     8  nrfx_uart.o(i.nrfx_uart_0_irq_handler)
    nrfx_uart_init                           0x0002a2d9   Thumb Code   196  nrfx_uart.o(i.nrfx_uart_init)
    nrfx_uart_rx                             0x0002a3a9   Thumb Code   230  nrfx_uart.o(i.nrfx_uart_rx)
    nrfx_uart_tx                             0x0002a495   Thumb Code   160  nrfx_uart.o(i.nrfx_uart_tx)
    nrfx_uart_tx_in_progress                 0x0002a539   Thumb Code    26  nrfx_uart.o(i.nrfx_uart_tx_in_progress)
    nrfx_uarte_0_irq_handler                 0x0002a559   Thumb Code     8  nrfx_uarte.o(i.nrfx_uarte_0_irq_handler)
    nrfx_uarte_init                          0x0002a569   Thumb Code   100  nrfx_uarte.o(i.nrfx_uarte_init)
    nrfx_uarte_rx                            0x0002a5d5   Thumb Code   256  nrfx_uarte.o(i.nrfx_uarte_rx)
    nrfx_uarte_tx                            0x0002a6d9   Thumb Code   138  nrfx_uarte.o(i.nrfx_uarte_tx)
    nrfx_uarte_tx_in_progress                0x0002a769   Thumb Code    22  nrfx_uarte.o(i.nrfx_uarte_tx_in_progress)
    nrf_log_backend_rtt_api                  0x0002bd38   Data          12  nrf_log_backend_rtt.o(.constdata)
    m_ram_start                              0x0002bddc   Data           4  nrf_sdh_ble.o(.constdata)
    __ctype_table                            0x0002be08   Data         129  ctype_o.o(.constdata)
    Region$$Table$$Base                      0x0002c7d8   Number         0  anon$$obj.o(Region$$Table)
    Region$$Table$$Limit                     0x0002c7f8   Number         0  anon$$obj.o(Region$$Table)
    log_const_data$$Base                     0x0002c808   Number         0  ble_db_discovery.o(log_const_data)
    m_nrf_log_ble_db_disc_logs_data_const    0x0002c808   Data           8  ble_db_discovery.o(log_const_data)
    m_nrf_log_nrf_ble_gatt_logs_data_const   0x0002c810   Data           8  nrf_ble_gatt.o(log_const_data)
    m_nrf_log_ble_scan_logs_data_const       0x0002c818   Data           8  nrf_ble_scan.o(log_const_data)
    m_nrf_log_ble_nus_c_logs_data_const      0x0002c820   Data           8  ble_nus_c.o(log_const_data)
    m_nrf_log_clock_logs_data_const          0x0002c828   Data           8  nrf_drv_clock.o(log_const_data)
    m_nrf_log_GPIOTE_logs_data_const         0x0002c830   Data           8  nrfx_gpiote.o(log_const_data)
    m_nrf_log_PRS_logs_data_const            0x0002c838   Data           8  nrfx_prs.o(log_const_data)
    m_nrf_log_UART_logs_data_const           0x0002c840   Data           8  nrfx_uart.o(log_const_data)
    m_nrf_log_UARTE_logs_data_const          0x0002c848   Data           8  nrfx_uarte.o(log_const_data)
    m_nrf_log_CLOCK_logs_data_const          0x0002c850   Data           8  nrfx_clock.o(log_const_data)
    m_nrf_log_pwr_mgmt_logs_data_const       0x0002c858   Data           8  nrf_pwr_mgmt.o(log_const_data)
    m_nrf_log_app_logs_data_const            0x0002c860   Data           8  nrf_log_frontend.o(log_const_data)
    m_nrf_log_nrf_sdh_logs_data_const        0x0002c868   Data           8  nrf_sdh.o(log_const_data)
    m_nrf_log_nrf_sdh_ble_logs_data_const    0x0002c870   Data           8  nrf_sdh_ble.o(log_const_data)
    m_nrf_log_nrf_sdh_soc_logs_data_const    0x0002c878   Data           8  nrf_sdh_soc.o(log_const_data)
    log_const_data$$Limit                    0x0002c880   Number         0  nrf_sdh_soc.o(log_const_data)
    log_mempool                              0x0002c880   Data          20  nrf_log_frontend.o(nrf_balloc)
    pwr_mgmt_data1$$Base                     0x0002c894   Number         0  main.o(pwr_mgmt_data1)
    pwr_mgmt_data1$$Limit                    0x0002c898   Number         0  main.o(pwr_mgmt_data1)
    sdh_ble_observers1$$Base                 0x0002c898   Number         0  main.o(sdh_ble_observers1)
    sdh_ble_observers1$$Limit                0x0002c8b8   Number         0  bsp_btn_ble.o(sdh_ble_observers1)
    sdh_ble_observers2$$Base                 0x0002c8b8   Number         0  communication.o(sdh_ble_observers2)
    sdh_ble_observers2$$Limit                0x0002c8c0   Number         0  communication.o(sdh_ble_observers2)
    sdh_ble_observers3$$Base                 0x0002c8c0   Number         0  communication.o(sdh_ble_observers3)
    sdh_ble_observers3$$Limit                0x0002c8c8   Number         0  communication.o(sdh_ble_observers3)
    sdh_soc_observers0$$Base                 0x0002c8c8   Number         0  nrf_drv_clock.o(sdh_soc_observers0)
    sdh_soc_observers0$$Limit                0x0002c8d0   Number         0  nrf_drv_clock.o(sdh_soc_observers0)
    sdh_stack_observers0$$Base               0x0002c8d0   Number         0  nrf_sdh_ble.o(sdh_stack_observers0)
    sdh_stack_observers0$$Limit              0x0002c8e0   Number         0  nrf_sdh_soc.o(sdh_stack_observers0)
    sdh_state_observers0$$Base               0x0002c8e0   Number         0  nrf_drv_clock.o(sdh_state_observers0)
    sdh_state_observers0$$Limit              0x0002c8e8   Number         0  nrf_drv_clock.o(sdh_state_observers0)
    Image$$RW_IRAM1$$Base                    0x200029e0   Number         0  anon$$obj.o ABSOLUTE
    nrf_drv_uart_use_easy_dma                0x20002ce8   Data           1  nrf_drv_uart.o(.data)
    SystemCoreClock                          0x20002dc0   Data           4  system_nrf52.o(.data)
    nrf_nvic_state                           0x2000379c   Data          12  app_util_platform.o(.bss)
    _SEGGER_RTT                              0x20003d70   Data         120  segger_rtt.o(.bss)
    __initial_sp                             0x20005ff8   Data           0  arm_startup_nrf52.o(STACK)



==============================================================================

Memory Map of the image

  Image Entry point : 0x00026201

  Load Region LR_IROM1 (Base: 0x00026000, Size: 0x00006ccc, Max: 0x0005a000, ABSOLUTE, COMPRESSED[0x00006930])

    Execution Region ER_IROM1 (Exec base: 0x00026000, Load base: 0x00026000, Size: 0x000068e8, Max: 0x0005a000, ABSOLUTE)

    Exec Addr    Load Addr    Size         Type   Attr      Idx    E Section Name        Object

    0x00026000   0x00026000   0x00000200   Data   RO         4593    RESET               arm_startup_nrf52.o
    0x00026200   0x00026200   0x00000000   Code   RO         4634  * .ARM.Collect$$$$00000000  mc_w.l(entry.o)
    0x00026200   0x00026200   0x00000004   Code   RO         4681    .ARM.Collect$$$$00000001  mc_w.l(entry2.o)
    0x00026204   0x00026204   0x00000004   Code   RO         4684    .ARM.Collect$$$$00000004  mc_w.l(entry5.o)
    0x00026208   0x00026208   0x00000000   Code   RO         4686    .ARM.Collect$$$$00000008  mc_w.l(entry7b.o)
    0x00026208   0x00026208   0x00000000   Code   RO         4688    .ARM.Collect$$$$0000000A  mc_w.l(entry8b.o)
    0x00026208   0x00026208   0x00000008   Code   RO         4689    .ARM.Collect$$$$0000000B  mc_w.l(entry9a.o)
    0x00026210   0x00026210   0x00000000   Code   RO         4691    .ARM.Collect$$$$0000000D  mc_w.l(entry10a.o)
    0x00026210   0x00026210   0x00000000   Code   RO         4693    .ARM.Collect$$$$0000000F  mc_w.l(entry11a.o)
    0x00026210   0x00026210   0x00000004   Code   RO         4682    .ARM.Collect$$$$00002712  mc_w.l(entry2.o)
    0x00026214   0x00026214   0x000000e2   Code   RO         3181    .emb_text           nrf_atomic.o
    0x000262f6   0x000262f6   0x00000002   PAD
    0x000262f8   0x000262f8   0x00000024   Code   RO         4594    .text               arm_startup_nrf52.o
    0x0002631c   0x0002631c   0x00000062   Code   RO         4637    .text               mc_w.l(uldiv.o)
    0x0002637e   0x0002637e   0x0000001e   Code   RO         4639    .text               mc_w.l(llshl.o)
    0x0002639c   0x0002639c   0x00000008   Code   RO         4641    .text               mc_w.l(ctype_o.o)
    0x000263a4   0x000263a4   0x00000024   Code   RO         4669    .text               mc_w.l(memcpya.o)
    0x000263c8   0x000263c8   0x00000024   Code   RO         4671    .text               mc_w.l(memseta.o)
    0x000263ec   0x000263ec   0x0000000e   Code   RO         4673    .text               mc_w.l(strlen.o)
    0x000263fa   0x000263fa   0x0000001a   Code   RO         4675    .text               mc_w.l(memcmp.o)
    0x00026414   0x00026414   0x00000012   Code   RO         4677    .text               mc_w.l(strcpy.o)
    0x00026426   0x00026426   0x00000020   Code   RO         4695    .text               mc_w.l(llushr.o)
    0x00026446   0x00026446   0x00000002   PAD
    0x00026448   0x00026448   0x00000024   Code   RO         4697    .text               mc_w.l(init.o)
    0x0002646c   0x0002646c   0x00000056   Code   RO         4707    .text               mc_w.l(__dczerorl2.o)
    0x000264c2   0x000264c2   0x00000002   PAD
    0x000264c4   0x000264c4   0x00000068   Code   RO          343    i.BLEEvent_handler  communication.o
    0x0002652c   0x0002652c   0x0000002e   Code   RO          347    i.BLE_ProtocolStack_Initialization  communication.o
    0x0002655a   0x0002655a   0x00000002   PAD
    0x0002655c   0x0002655c   0x00000038   Code   RO          348    i.BLE_Scan_Initialization  communication.o
    0x00026594   0x00026594   0x00000028   Code   RO          349    i.BLE_Scan_Start    communication.o
    0x000265bc   0x000265bc   0x00000164   Code   RO         1683    i.GPIOTE_IRQHandler  nrfx_gpiote.o
    0x00026720   0x00026720   0x00000016   Code   RO         2763    i.NVIC_ClearPendingIRQ  app_timer.o
    0x00026736   0x00026736   0x00000016   Code   RO         2764    i.NVIC_EnableIRQ    app_timer.o
    0x0002674c   0x0002674c   0x00000016   Code   RO         2765    i.NVIC_SetPendingIRQ  app_timer.o
    0x00026762   0x00026762   0x00000020   Code   RO         2766    i.NVIC_SetPriority  app_timer.o
    0x00026782   0x00026782   0x00000002   PAD
    0x00026784   0x00026784   0x00000058   Code   RO         2356    i.POWER_CLOCK_IRQHandler  nrfx_clock.o
    0x000267dc   0x000267dc   0x00000024   Code   RO         2767    i.RTC1_IRQHandler   app_timer.o
    0x00026800   0x00026800   0x00000004   Code   RO         4133    i.SEGGER_RTT_Init   segger_rtt.o
    0x00026804   0x00026804   0x0000005c   Code   RO         4147    i.SEGGER_RTT_WriteNoLock  segger_rtt.o
    0x00026860   0x00026860   0x00000004   Code   RO         2768    i.SWI0_EGU0_IRQHandler  app_timer.o
    0x00026864   0x00026864   0x00000004   Code   RO         4384    i.SWI2_EGU2_IRQHandler  nrf_sdh.o
    0x00026868   0x00026868   0x000000a0   Code   RO          352    i.ScanEvent_handler  communication.o
    0x00026908   0x00026908   0x0000031c   Code   RO         4602    i.SystemInit        system_nrf52.o
    0x00026c24   0x00026c24   0x00000068   Code   RO          353    i.TestingFnc        communication.o
    0x00026c8c   0x00026c8c   0x0000000c   Code   RO         1955    i.UARTE0_UART0_IRQHandler  nrfx_prs.o
    0x00026c98   0x00026c98   0x00000124   Code   RO          354    i.UARTEvent_handler  communication.o
    0x00026dbc   0x00026dbc   0x00000048   Code   RO          355    i.UART_Initialization  communication.o
    0x00026e04   0x00026e04   0x00000068   Code   RO         4151    i._DoInit           segger_rtt.o
    0x00026e6c   0x00026e6c   0x00000016   Code   RO         4152    i._GetAvailWriteSpace  segger_rtt.o
    0x00026e82   0x00026e82   0x0000005a   Code   RO         4154    i._WriteBlocking    segger_rtt.o
    0x00026edc   0x00026edc   0x00000042   Code   RO         4155    i._WriteNoCheck     segger_rtt.o
    0x00026f1e   0x00026f1e   0x0000000e   Code   RO         4701    i.__scatterload_copy  mc_w.l(handlers.o)
    0x00026f2c   0x00026f2c   0x00000002   Code   RO         4702    i.__scatterload_null  mc_w.l(handlers.o)
    0x00026f2e   0x00026f2e   0x0000000e   Code   RO         4703    i.__scatterload_zeroinit  mc_w.l(handlers.o)
    0x00026f3c   0x00026f3c   0x00000024   Code   RO         4385    i.__sd_nvic_app_accessible_irq  nrf_sdh.o
    0x00026f60   0x00026f60   0x00000036   Code   RO          671    i.advertising_buttons_configure  bsp_btn_ble.o
    0x00026f96   0x00026f96   0x00000006   Code   RO          554    i.alert_timer_handler  bsp.o
    0x00026f9c   0x00026f9c   0x00000024   Code   RO         2485    i.app_button_enable  app_button.o
    0x00026fc0   0x00026fc0   0x00000078   Code   RO         2486    i.app_button_init   app_button.o
    0x00027038   0x00027038   0x00000084   Code   RO         2605    i.app_error_fault_handler  app_error_weak.o
    0x000270bc   0x000270bc   0x00000016   Code   RO         2549    i.app_error_handler_bare  app_error.o
    0x000270d2   0x000270d2   0x00000016   Code   RO         2640    i.app_fifo_get      app_fifo.o
    0x000270e8   0x000270e8   0x00000020   Code   RO         2641    i.app_fifo_init     app_fifo.o
    0x00027108   0x00027108   0x0000001a   Code   RO         2643    i.app_fifo_put      app_fifo.o
    0x00027122   0x00027122   0x00000002   PAD
    0x00027124   0x00027124   0x00000028   Code   RO         2771    i.app_timer_create  app_timer.o
    0x0002714c   0x0002714c   0x00000054   Code   RO         2772    i.app_timer_init    app_timer.o
    0x000271a0   0x000271a0   0x00000088   Code   RO         2775    i.app_timer_start   app_timer.o
    0x00027228   0x00027228   0x00000020   Code   RO         2776    i.app_timer_stop    app_timer.o
    0x00027248   0x00027248   0x00000034   Code   RO         2938    i.app_uart_get      app_uart_fifo.o
    0x0002727c   0x0002727c   0x000000a4   Code   RO         2939    i.app_uart_init     app_uart_fifo.o
    0x00027320   0x00027320   0x00000048   Code   RO         3013    i.app_util_critical_region_enter  app_util_platform.o
    0x00027368   0x00027368   0x00000034   Code   RO         3014    i.app_util_critical_region_exit  app_util_platform.o
    0x0002739c   0x0002739c   0x00000088   Code   RO         2009    i.apply_config      nrfx_uart.o
    0x00027424   0x00027424   0x00000088   Code   RO         2201    i.apply_config      nrfx_uarte.o
    0x000274ac   0x000274ac   0x00000038   Code   RO          721    i.ble_advdata_search  ble_advdata.o
    0x000274e4   0x000274e4   0x000000b6   Code   RO          723    i.ble_advdata_uuid_find  ble_advdata.o
    0x0002759a   0x0002759a   0x00000002   PAD
    0x0002759c   0x0002759c   0x00000090   Code   RO          901    i.ble_db_discovery_on_ble_evt  ble_db_discovery.o
    0x0002762c   0x0002762c   0x00000070   Code   RO          672    i.ble_evt_handler   bsp_btn_ble.o
    0x0002769c   0x0002769c   0x000000a8   Code   RO         1261    i.ble_nus_c_on_ble_evt  ble_nus_c.o
    0x00027744   0x00027744   0x00000094   Code   RO         1263    i.ble_nus_c_string_send  ble_nus_c.o
    0x000277d8   0x000277d8   0x0000000c   Code   RO          441    i.bsp_board_button_idx_to_pin  boards.o
    0x000277e4   0x000277e4   0x00000020   Code   RO          442    i.bsp_board_button_state_get  boards.o
    0x00027804   0x00027804   0x00000054   Code   RO          443    i.bsp_board_init    boards.o
    0x00027858   0x00027858   0x00000024   Code   RO          445    i.bsp_board_led_invert  boards.o
    0x0002787c   0x0002787c   0x00000010   Code   RO          446    i.bsp_board_led_off  boards.o
    0x0002788c   0x0002788c   0x00000010   Code   RO          447    i.bsp_board_led_on  boards.o
    0x0002789c   0x0002789c   0x00000020   Code   RO          448    i.bsp_board_led_state_get  boards.o
    0x000278bc   0x000278bc   0x00000012   Code   RO          449    i.bsp_board_leds_off  boards.o
    0x000278ce   0x000278ce   0x00000012   Code   RO          450    i.bsp_board_leds_on  boards.o
    0x000278e0   0x000278e0   0x00000024   Code   RO          451    i.bsp_board_pin_to_button_idx  boards.o
    0x00027904   0x00027904   0x00000038   Code   RO          673    i.bsp_btn_ble_init  bsp_btn_ble.o
    0x0002793c   0x0002793c   0x0000001e   Code   RO          674    i.bsp_btn_ble_sleep_mode_prepare  bsp_btn_ble.o
    0x0002795a   0x0002795a   0x00000002   PAD
    0x0002795c   0x0002795c   0x00000090   Code   RO          555    i.bsp_button_event_handler  bsp.o
    0x000279ec   0x000279ec   0x0000000c   Code   RO          556    i.bsp_button_is_pressed  bsp.o
    0x000279f8   0x000279f8   0x00000024   Code   RO            6    i.bsp_event_handler  main.o
    0x00027a1c   0x00027a1c   0x00000044   Code   RO          559    i.bsp_event_to_button_action_assign  bsp.o
    0x00027a60   0x00027a60   0x00000018   Code   RO          560    i.bsp_indication_set  bsp.o
    0x00027a78   0x00027a78   0x00000094   Code   RO          561    i.bsp_init          bsp.o
    0x00027b0c   0x00027b0c   0x000001c8   Code   RO          562    i.bsp_led_indication  bsp.o
    0x00027cd4   0x00027cd4   0x00000006   Code   RO          564    i.bsp_wakeup_button_enable  bsp.o
    0x00027cda   0x00027cda   0x00000002   PAD
    0x00027cdc   0x00027cdc   0x00000090   Code   RO         3888    i.buf_prealloc      nrf_log_frontend.o
    0x00027d6c   0x00027d6c   0x0000002e   Code   RO         3396    i.buffer_add        nrf_fprintf_format.o
    0x00027d9a   0x00027d9a   0x00000002   PAD
    0x00027d9c   0x00027d9c   0x00000014   Code   RO         3889    i.buffer_is_empty   nrf_log_frontend.o
    0x00027db0   0x00027db0   0x00000008   Code   RO          565    i.button_timer_handler  bsp.o
    0x00027db8   0x00027db8   0x0000001c   Code   RO         1684    i.channel_free      nrfx_gpiote.o
    0x00027dd4   0x00027dd4   0x00000048   Code   RO         1685    i.channel_port_alloc  nrfx_gpiote.o
    0x00027e1c   0x00027e1c   0x00000010   Code   RO         1686    i.channel_port_get  nrfx_gpiote.o
    0x00027e2c   0x00027e2c   0x00000042   Code   RO          903    i.characteristics_discover  ble_db_discovery.o
    0x00027e6e   0x00027e6e   0x00000002   PAD
    0x00027e70   0x00027e70   0x00000028   Code   RO         1343    i.clock_clk_started_notify  nrf_drv_clock.o
    0x00027e98   0x00027e98   0x0000001c   Code   RO         1344    i.clock_irq_handler  nrf_drv_clock.o
    0x00027eb4   0x00027eb4   0x000000ac   Code   RO         2778    i.compare_reg_update  app_timer.o
    0x00027f60   0x00027f60   0x00000100   Code   RO         1019    i.data_length_update  nrf_ble_gatt.o
    0x00028060   0x00028060   0x0000008c   Code   RO          904    i.descriptors_discover  ble_db_discovery.o
    0x000280ec   0x000280ec   0x0000009c   Code   RO         2488    i.detection_delay_timeout_handler  app_button.o
    0x00028188   0x00028188   0x00000090   Code   RO          905    i.discovery_complete_evt_trigger  ble_db_discovery.o
    0x00028218   0x00028218   0x0000003c   Code   RO          906    i.discovery_error_evt_trigger  ble_db_discovery.o
    0x00028254   0x00028254   0x00000080   Code   RO          907    i.discovery_start   ble_db_discovery.o
    0x000282d4   0x000282d4   0x00000014   Code   RO         3890    i.dropped_sat16_get  nrf_log_frontend.o
    0x000282e8   0x000282e8   0x00000040   Code   RO         2779    i.elapsed_ticks_acquire  app_timer.o
    0x00028328   0x00028328   0x00000014   Code   RO         2646    i.fifo_get          app_fifo.o
    0x0002833c   0x0002833c   0x00000012   Code   RO         2647    i.fifo_put          app_fifo.o
    0x0002834e   0x0002834e   0x00000002   PAD
    0x00028350   0x00028350   0x00000084   Code   RO         2489    i.gpiote_event_handler  app_button.o
    0x000283d4   0x000283d4   0x000000a6   Code   RO         3397    i.int_print         nrf_fprintf_format.o
    0x0002847a   0x0002847a   0x00000002   PAD
    0x0002847c   0x0002847c   0x0000007c   Code   RO         2202    i.interrupts_enable  nrfx_uarte.o
    0x000284f8   0x000284f8   0x00000034   Code   RO         3891    i.invalid_packets_omit  nrf_log_frontend.o
    0x0002852c   0x0002852c   0x0000004c   Code   RO          908    i.is_desc_discovery_reqd  ble_db_discovery.o
    0x00028578   0x00028578   0x00000016   Code   RO         1136    i.is_whitelist_used  nrf_ble_scan.o
    0x0002858e   0x0002858e   0x00000002   PAD
    0x00028590   0x00028590   0x00000030   Code   RO          566    i.leds_off          bsp.o
    0x000285c0   0x000285c0   0x00000014   Code   RO          567    i.leds_timer_handler  bsp.o
    0x000285d4   0x000285d4   0x00000018   Code   RO         1020    i.link_init         nrf_ble_gatt.o
    0x000285ec   0x000285ec   0x000000f8   Code   RO         2780    i.list_insertions_handler  app_timer.o
    0x000286e4   0x000286e4   0x0000009c   Code   RO         3892    i.log_skip          nrf_log_frontend.o
    0x00028780   0x00028780   0x000000d4   Code   RO            8    i.main              main.o
    0x00028854   0x00028854   0x0000007e   Code   RO         3436    i.memobj_op         nrf_memobj.o
    0x000288d2   0x000288d2   0x00000002   PAD
    0x000288d4   0x000288d4   0x00000030   Code   RO         3893    i.module_idx_get    nrf_log_frontend.o
    0x00028904   0x00028904   0x00000006   Code   RO         3183    i.nrf_atomic_flag_clear_fetch  nrf_atomic.o
    0x0002890a   0x0002890a   0x00000006   Code   RO         3184    i.nrf_atomic_flag_set  nrf_atomic.o
    0x00028910   0x00028910   0x0000000c   Code   RO         3186    i.nrf_atomic_u32_add  nrf_atomic.o
    0x0002891c   0x0002891c   0x0000000a   Code   RO         3190    i.nrf_atomic_u32_fetch_and  nrf_atomic.o
    0x00028926   0x00028926   0x0000000a   Code   RO         3192    i.nrf_atomic_u32_fetch_store  nrf_atomic.o
    0x00028930   0x00028930   0x0000000c   Code   RO         3196    i.nrf_atomic_u32_or  nrf_atomic.o
    0x0002893c   0x0002893c   0x0000000c   Code   RO         3198    i.nrf_atomic_u32_sub  nrf_atomic.o
    0x00028948   0x00028948   0x00000044   Code   RO         3320    i.nrf_balloc_alloc  nrf_balloc.o
    0x0002898c   0x0002898c   0x00000030   Code   RO         3321    i.nrf_balloc_free   nrf_balloc.o
    0x000289bc   0x000289bc   0x00000030   Code   RO         3322    i.nrf_balloc_init   nrf_balloc.o
    0x000289ec   0x000289ec   0x00000010   Code   RO         1687    i.nrf_bitmask_bit_is_set  nrfx_gpiote.o
    0x000289fc   0x000289fc   0x00000014   Code   RO         1688    i.nrf_bitmask_bit_set  nrfx_gpiote.o
    0x00028a10   0x00028a10   0x000000ec   Code   RO         1027    i.nrf_ble_gatt_on_ble_evt  nrf_ble_gatt.o
    0x00028afc   0x00028afc   0x0000009c   Code   RO         1138    i.nrf_ble_scan_connect_with_target  nrf_ble_scan.o
    0x00028b98   0x00028b98   0x00000014   Code   RO         1140    i.nrf_ble_scan_default_conn_param_set  nrf_ble_scan.o
    0x00028bac   0x00028bac   0x0000001e   Code   RO         1141    i.nrf_ble_scan_default_param_set  nrf_ble_scan.o
    0x00028bca   0x00028bca   0x0000006c   Code   RO         1146    i.nrf_ble_scan_init  nrf_ble_scan.o
    0x00028c36   0x00028c36   0x000000fc   Code   RO         1147    i.nrf_ble_scan_on_adv_report  nrf_ble_scan.o
    0x00028d32   0x00028d32   0x00000002   PAD
    0x00028d34   0x00028d34   0x000000e0   Code   RO         1148    i.nrf_ble_scan_on_ble_evt  nrf_ble_scan.o
    0x00028e14   0x00028e14   0x000000a0   Code   RO         1150    i.nrf_ble_scan_start  nrf_ble_scan.o
    0x00028eb4   0x00028eb4   0x0000000e   Code   RO         2357    i.nrf_clock_event_check  nrfx_clock.o
    0x00028ec2   0x00028ec2   0x00000010   Code   RO         2358    i.nrf_clock_event_clear  nrfx_clock.o
    0x00028ed2   0x00028ed2   0x00000002   PAD
    0x00028ed4   0x00028ed4   0x00000038   Code   RO         1351    i.nrf_drv_clock_init  nrf_drv_clock.o
    0x00028f0c   0x00028f0c   0x00000030   Code   RO         1355    i.nrf_drv_clock_lfclk_release  nrf_drv_clock.o
    0x00028f3c   0x00028f3c   0x00000068   Code   RO         1492    i.nrf_drv_uart_init  nrf_drv_uart.o
    0x00028fa4   0x00028fa4   0x00000020   Code   RO         2941    i.nrf_drv_uart_rx   app_uart_fifo.o
    0x00028fc4   0x00028fc4   0x00000020   Code   RO         2942    i.nrf_drv_uart_tx   app_uart_fifo.o
    0x00028fe4   0x00028fe4   0x0000001a   Code   RO         3357    i.nrf_fprintf       nrf_fprintf.o
    0x00028ffe   0x00028ffe   0x00000018   Code   RO         3358    i.nrf_fprintf_buffer_flush  nrf_fprintf.o
    0x00029016   0x00029016   0x000001da   Code   RO         3398    i.nrf_fprintf_fmt   nrf_fprintf_format.o
    0x000291f0   0x000291f0   0x00000024   Code   RO          453    i.nrf_gpio_cfg      boards.o
    0x00029214   0x00029214   0x00000024   Code   RO         1689    i.nrf_gpio_cfg      nrfx_gpiote.o
    0x00029238   0x00029238   0x00000024   Code   RO         2010    i.nrf_gpio_cfg      nrfx_uart.o
    0x0002925c   0x0002925c   0x00000024   Code   RO         2203    i.nrf_gpio_cfg      nrfx_uarte.o
    0x00029280   0x00029280   0x00000012   Code   RO         2012    i.nrf_gpio_cfg_input  nrfx_uart.o
    0x00029292   0x00029292   0x00000012   Code   RO         2205    i.nrf_gpio_cfg_input  nrfx_uarte.o
    0x000292a4   0x000292a4   0x00000014   Code   RO         2013    i.nrf_gpio_cfg_output  nrfx_uart.o
    0x000292b8   0x000292b8   0x00000014   Code   RO         2206    i.nrf_gpio_cfg_output  nrfx_uarte.o
    0x000292cc   0x000292cc   0x00000022   Code   RO         1691    i.nrf_gpio_cfg_sense_set  nrfx_gpiote.o
    0x000292ee   0x000292ee   0x00000016   Code   RO          454    i.nrf_gpio_pin_write  boards.o
    0x00029304   0x00029304   0x00000028   Code   RO         1692    i.nrf_gpio_ports_read  nrfx_gpiote.o
    0x0002932c   0x0002932c   0x00000014   Code   RO         1693    i.nrf_gpiote_event_clear  nrfx_gpiote.o
    0x00029340   0x00029340   0x00000010   Code   RO         1694    i.nrf_gpiote_event_is_set  nrfx_gpiote.o
    0x00029350   0x00029350   0x0000005c   Code   RO         3894    i.nrf_log_backend_add  nrf_log_frontend.o
    0x000293ac   0x000293ac   0x00000002   Code   RO         3756    i.nrf_log_backend_rtt_flush  nrf_log_backend_rtt.o
    0x000293ae   0x000293ae   0x00000004   Code   RO         3757    i.nrf_log_backend_rtt_init  nrf_log_backend_rtt.o
    0x000293b2   0x000293b2   0x00000002   Code   RO         3758    i.nrf_log_backend_rtt_panic_set  nrf_log_backend_rtt.o
    0x000293b4   0x000293b4   0x00000018   Code   RO         3759    i.nrf_log_backend_rtt_put  nrf_log_backend_rtt.o
    0x000293cc   0x000293cc   0x000000c8   Code   RO         3825    i.nrf_log_backend_serial_put  nrf_log_backend_serial.o
    0x00029494   0x00029494   0x00000030   Code   RO         3896    i.nrf_log_color_id_get  nrf_log_frontend.o
    0x000294c4   0x000294c4   0x0000001c   Code   RO         3852    i.nrf_log_default_backends_init  nrf_log_default_backends.o
    0x000294e0   0x000294e0   0x00000234   Code   RO         3897    i.nrf_log_frontend_dequeue  nrf_log_frontend.o
    0x00029714   0x00029714   0x000000a8   Code   RO         3898    i.nrf_log_frontend_hexdump  nrf_log_frontend.o
    0x000297bc   0x000297bc   0x00000008   Code   RO         3899    i.nrf_log_frontend_std_0  nrf_log_frontend.o
    0x000297c4   0x000297c4   0x0000000e   Code   RO         3900    i.nrf_log_frontend_std_1  nrf_log_frontend.o
    0x000297d2   0x000297d2   0x00000010   Code   RO         3901    i.nrf_log_frontend_std_2  nrf_log_frontend.o
    0x000297e2   0x000297e2   0x00000012   Code   RO         3902    i.nrf_log_frontend_std_3  nrf_log_frontend.o
    0x000297f4   0x000297f4   0x0000001c   Code   RO         3905    i.nrf_log_frontend_std_6  nrf_log_frontend.o
    0x00029810   0x00029810   0x000000b0   Code   RO         4074    i.nrf_log_hexdump_entry_process  nrf_log_str_formatter.o
    0x000298c0   0x000298c0   0x0000003c   Code   RO         3906    i.nrf_log_init      nrf_log_frontend.o
    0x000298fc   0x000298fc   0x00000014   Code   RO         3907    i.nrf_log_module_cnt_get  nrf_log_frontend.o
    0x00029910   0x00029910   0x0000001c   Code   RO         3910    i.nrf_log_module_name_get  nrf_log_frontend.o
    0x0002992c   0x0002992c   0x0000002c   Code   RO         3911    i.nrf_log_panic     nrf_log_frontend.o
    0x00029958   0x00029958   0x000000b6   Code   RO         4075    i.nrf_log_std_entry_process  nrf_log_str_formatter.o
    0x00029a0e   0x00029a0e   0x00000060   Code   RO         3437    i.nrf_memobj_alloc  nrf_memobj.o
    0x00029a6e   0x00029a6e   0x00000032   Code   RO         3438    i.nrf_memobj_free   nrf_memobj.o
    0x00029aa0   0x00029aa0   0x00000008   Code   RO         3439    i.nrf_memobj_get    nrf_memobj.o
    0x00029aa8   0x00029aa8   0x00000004   Code   RO         3440    i.nrf_memobj_pool_init  nrf_memobj.o
    0x00029aac   0x00029aac   0x0000001e   Code   RO         3441    i.nrf_memobj_put    nrf_memobj.o
    0x00029aca   0x00029aca   0x00000010   Code   RO         3442    i.nrf_memobj_read   nrf_memobj.o
    0x00029ada   0x00029ada   0x00000010   Code   RO         3443    i.nrf_memobj_write  nrf_memobj.o
    0x00029aea   0x00029aea   0x00000002   PAD
    0x00029aec   0x00029aec   0x00000028   Code   RO         3515    i.nrf_pwr_mgmt_init  nrf_pwr_mgmt.o
    0x00029b14   0x00029b14   0x00000044   Code   RO         3516    i.nrf_pwr_mgmt_run  nrf_pwr_mgmt.o
    0x00029b58   0x00029b58   0x0000001c   Code   RO         3592    i.nrf_ringbuf_init  nrf_ringbuf.o
    0x00029b74   0x00029b74   0x00000014   Code   RO         4505    i.nrf_sdh_ble_app_ram_start_get  nrf_sdh_ble.o
    0x00029b88   0x00029b88   0x00000130   Code   RO         4506    i.nrf_sdh_ble_default_cfg_set  nrf_sdh_ble.o
    0x00029cb8   0x00029cb8   0x00000130   Code   RO         4507    i.nrf_sdh_ble_enable  nrf_sdh_ble.o
    0x00029de8   0x00029de8   0x00000060   Code   RO         4508    i.nrf_sdh_ble_evts_poll  nrf_sdh_ble.o
    0x00029e48   0x00029e48   0x00000074   Code   RO         4387    i.nrf_sdh_enable_request  nrf_sdh.o
    0x00029ebc   0x00029ebc   0x00000024   Code   RO         4388    i.nrf_sdh_evts_poll  nrf_sdh.o
    0x00029ee0   0x00029ee0   0x0000000c   Code   RO         4389    i.nrf_sdh_is_enabled  nrf_sdh.o
    0x00029eec   0x00029eec   0x0000003c   Code   RO         4559    i.nrf_sdh_soc_evts_poll  nrf_sdh_soc.o
    0x00029f28   0x00029f28   0x0000000a   Code   RO         3650    i.nrf_section_iter_init  nrf_section_iter.o
    0x00029f32   0x00029f32   0x00000024   Code   RO         3651    i.nrf_section_iter_item_set  nrf_section_iter.o
    0x00029f56   0x00029f56   0x00000020   Code   RO         3652    i.nrf_section_iter_next  nrf_section_iter.o
    0x00029f76   0x00029f76   0x00000002   PAD
    0x00029f78   0x00029f78   0x00000038   Code   RO         3685    i.nrf_strerror_find  nrf_strerror.o
    0x00029fb0   0x00029fb0   0x00000014   Code   RO         3686    i.nrf_strerror_get  nrf_strerror.o
    0x00029fc4   0x00029fc4   0x0000000a   Code   RO         2014    i.nrf_uart_event_check  nrfx_uart.o
    0x00029fce   0x00029fce   0x0000000c   Code   RO         2015    i.nrf_uart_event_clear  nrfx_uart.o
    0x00029fda   0x00029fda   0x0000000c   Code   RO         2016    i.nrf_uart_int_enable_check  nrfx_uart.o
    0x00029fe6   0x00029fe6   0x0000000a   Code   RO         2207    i.nrf_uarte_event_check  nrfx_uarte.o
    0x00029ff0   0x00029ff0   0x0000000c   Code   RO         2208    i.nrf_uarte_event_clear  nrfx_uarte.o
    0x00029ffc   0x00029ffc   0x0000002c   Code   RO         2363    i.nrfx_clock_enable  nrfx_clock.o
    0x0002a028   0x0002a028   0x00000020   Code   RO         2366    i.nrfx_clock_init   nrfx_clock.o
    0x0002a048   0x0002a048   0x0000001c   Code   RO         2369    i.nrfx_clock_lfclk_stop  nrfx_clock.o
    0x0002a064   0x0002a064   0x00000010   Code   RO         2781    i.nrfx_coredep_delay_us  app_timer.o
    0x0002a074   0x0002a074   0x000000a4   Code   RO         1699    i.nrfx_gpiote_in_event_enable  nrfx_gpiote.o
    0x0002a118   0x0002a118   0x000000d0   Code   RO         1700    i.nrfx_gpiote_in_init  nrfx_gpiote.o
    0x0002a1e8   0x0002a1e8   0x00000014   Code   RO         1701    i.nrfx_gpiote_in_is_set  nrfx_gpiote.o
    0x0002a1fc   0x0002a1fc   0x0000006c   Code   RO         1703    i.nrfx_gpiote_init  nrfx_gpiote.o
    0x0002a268   0x0002a268   0x00000014   Code   RO         1704    i.nrfx_gpiote_is_init  nrfx_gpiote.o
    0x0002a27c   0x0002a27c   0x00000010   Code   RO         2209    i.nrfx_is_in_ram    nrfx_uarte.o
    0x0002a28c   0x0002a28c   0x0000003a   Code   RO         1956    i.nrfx_prs_acquire  nrfx_prs.o
    0x0002a2c6   0x0002a2c6   0x00000002   PAD
    0x0002a2c8   0x0002a2c8   0x00000010   Code   RO         2017    i.nrfx_uart_0_irq_handler  nrfx_uart.o
    0x0002a2d8   0x0002a2d8   0x000000d0   Code   RO         2019    i.nrfx_uart_init    nrfx_uart.o
    0x0002a3a8   0x0002a3a8   0x000000ec   Code   RO         2020    i.nrfx_uart_rx      nrfx_uart.o
    0x0002a494   0x0002a494   0x000000a4   Code   RO         2025    i.nrfx_uart_tx      nrfx_uart.o
    0x0002a538   0x0002a538   0x00000020   Code   RO         2027    i.nrfx_uart_tx_in_progress  nrfx_uart.o
    0x0002a558   0x0002a558   0x00000010   Code   RO         2210    i.nrfx_uarte_0_irq_handler  nrfx_uarte.o
    0x0002a568   0x0002a568   0x0000006c   Code   RO         2212    i.nrfx_uarte_init   nrfx_uarte.o
    0x0002a5d4   0x0002a5d4   0x00000104   Code   RO         2213    i.nrfx_uarte_rx     nrfx_uarte.o
    0x0002a6d8   0x0002a6d8   0x00000090   Code   RO         2216    i.nrfx_uarte_tx     nrfx_uarte.o
    0x0002a768   0x0002a768   0x0000001c   Code   RO         2218    i.nrfx_uarte_tx_in_progress  nrfx_uarte.o
    0x0002a784   0x0002a784   0x00000164   Code   RO          909    i.on_characteristic_discovery_rsp  ble_db_discovery.o
    0x0002a8e8   0x0002a8e8   0x00000108   Code   RO         1028    i.on_connected_evt  nrf_ble_gatt.o
    0x0002a9f0   0x0002a9f0   0x00000114   Code   RO         1029    i.on_data_length_update_evt  nrf_ble_gatt.o
    0x0002ab04   0x0002ab04   0x0000007c   Code   RO         1030    i.on_data_length_update_request_evt  nrf_ble_gatt.o
    0x0002ab80   0x0002ab80   0x00000114   Code   RO          910    i.on_descriptor_discovery_rsp  ble_db_discovery.o
    0x0002ac94   0x0002ac94   0x0000014c   Code   RO         1031    i.on_exchange_mtu_request_evt  nrf_ble_gatt.o
    0x0002ade0   0x0002ade0   0x000000ac   Code   RO         1032    i.on_exchange_mtu_rsp_evt  nrf_ble_gatt.o
    0x0002ae8c   0x0002ae8c   0x000000cc   Code   RO          911    i.on_primary_srv_discovery_rsp  ble_db_discovery.o
    0x0002af58   0x0002af58   0x000000a8   Code   RO          912    i.on_srv_disc_completion  ble_db_discovery.o
    0x0002b000   0x0002b000   0x00000018   Code   RO         1720    i.pin_in_use_by_port  nrfx_gpiote.o
    0x0002b018   0x0002b018   0x00000018   Code   RO         1721    i.pin_in_use_by_te  nrfx_gpiote.o
    0x0002b030   0x0002b030   0x0000003c   Code   RO         4077    i.postfix_process   nrf_log_str_formatter.o
    0x0002b06c   0x0002b06c   0x00000098   Code   RO         4078    i.prefix_process    nrf_log_str_formatter.o
    0x0002b104   0x0002b104   0x00000018   Code   RO         1958    i.prs_box_get       nrfx_prs.o
    0x0002b11c   0x0002b11c   0x00000038   Code   RO          913    i.registered_handler_get  ble_db_discovery.o
    0x0002b154   0x0002b154   0x0000003c   Code   RO         2782    i.rtc1_stop         app_timer.o
    0x0002b190   0x0002b190   0x00000032   Code   RO         2029    i.rx_byte           nrfx_uart.o
    0x0002b1c2   0x0002b1c2   0x00000016   Code   RO         2030    i.rx_done_event     nrfx_uart.o
    0x0002b1d8   0x0002b1d8   0x00000016   Code   RO         2220    i.rx_done_event     nrfx_uarte.o
    0x0002b1ee   0x0002b1ee   0x00000020   Code   RO         2031    i.rx_enable         nrfx_uart.o
    0x0002b20e   0x0002b20e   0x00000002   PAD
    0x0002b210   0x0002b210   0x00000050   Code   RO         1358    i.sd_state_evt_handler  nrf_drv_clock.o
    0x0002b260   0x0002b260   0x00000030   Code   RO         4394    i.sdh_request_observer_notify  nrf_sdh.o
    0x0002b290   0x0002b290   0x0000002c   Code   RO         4395    i.sdh_state_observer_notify  nrf_sdh.o
    0x0002b2bc   0x0002b2bc   0x00000050   Code   RO         3760    i.serial_tx         nrf_log_backend_rtt.o
    0x0002b30c   0x0002b30c   0x00000020   Code   RO            9    i.shutdown_handler  main.o
    0x0002b32c   0x0002b32c   0x00000018   Code   RO         1359    i.soc_evt_handler   nrf_drv_clock.o
    0x0002b344   0x0002b344   0x00000058   Code   RO         4397    i.softdevices_evt_irq_enable  nrf_sdh.o
    0x0002b39c   0x0002b39c   0x0000008c   Code   RO         3913    i.std_n             nrf_log_frontend.o
    0x0002b428   0x0002b428   0x00000080   Code   RO         2783    i.timer_list_handler  app_timer.o
    0x0002b4a8   0x0002b4a8   0x0000003c   Code   RO         2784    i.timer_list_insert  app_timer.o
    0x0002b4e4   0x0002b4e4   0x00000060   Code   RO         2785    i.timer_list_remove  app_timer.o
    0x0002b544   0x0002b544   0x00000048   Code   RO         2786    i.timer_stop_op_schedule  app_timer.o
    0x0002b58c   0x0002b58c   0x00000074   Code   RO         2787    i.timer_timeouts_check  app_timer.o
    0x0002b600   0x0002b600   0x00000020   Code   RO         2032    i.tx_byte           nrfx_uart.o
    0x0002b620   0x0002b620   0x0000001a   Code   RO         2033    i.tx_done_event     nrfx_uart.o
    0x0002b63a   0x0002b63a   0x00000002   PAD
    0x0002b63c   0x0002b63c   0x000000a0   Code   RO         2943    i.uart_event_handler  app_uart_fifo.o
    0x0002b6dc   0x0002b6dc   0x00000030   Code   RO         1493    i.uart_evt_handler  nrf_drv_uart.o
    0x0002b70c   0x0002b70c   0x00000128   Code   RO         2034    i.uart_irq_handler  nrfx_uart.o
    0x0002b834   0x0002b834   0x00000030   Code   RO         1494    i.uarte_evt_handler  nrf_drv_uart.o
    0x0002b864   0x0002b864   0x000000f2   Code   RO         2221    i.uarte_irq_handler  nrfx_uarte.o
    0x0002b956   0x0002b956   0x00000002   PAD
    0x0002b958   0x0002b958   0x000000b4   Code   RO         3399    i.unsigned_print    nrf_fprintf_format.o
    0x0002ba0c   0x0002ba0c   0x00000030   Code   RO         2788    i.user_op_alloc     app_timer.o
    0x0002ba3c   0x0002ba3c   0x0000003a   Code   RO          568    i.wakeup_button_cfg  bsp.o
    0x0002ba76   0x0002ba76   0x00000002   PAD
    0x0002ba78   0x0002ba78   0x00000018   Data   RO          357    .constdata          communication.o
    0x0002ba90   0x0002ba90   0x00000008   Data   RO          455    .constdata          boards.o
    0x0002ba98   0x0002ba98   0x0000002c   Data   RO          573    .constdata          bsp.o
    0x0002bac4   0x0002bac4   0x0000007c   Data   RO          915    .constdata          ble_db_discovery.o
    0x0002bb40   0x0002bb40   0x00000016   Data   RO         1033    .constdata          nrf_ble_gatt.o
    0x0002bb56   0x0002bb56   0x00000002   PAD
    0x0002bb58   0x0002bb58   0x00000028   Data   RO         1265    .constdata          ble_nus_c.o
    0x0002bb80   0x0002bb80   0x00000004   Data   RO         1723    .constdata          nrfx_gpiote.o
    0x0002bb84   0x0002bb84   0x00000004   Data   RO         2037    .constdata          nrfx_uart.o
    0x0002bb88   0x0002bb88   0x00000004   Data   RO         2224    .constdata          nrfx_uarte.o
    0x0002bb8c   0x0002bb8c   0x00000008   Data   RO         2491    .constdata          app_button.o
    0x0002bb94   0x0002bb94   0x0000000c   PAD
    0x0002bba0   0x0002bba0   0x00000006   Data   RO         2790    .constdata          app_timer.o
    0x0002bba6   0x0002bba6   0x00000002   PAD
    0x0002bba8   0x0002bba8   0x00000020   Data   RO         2945    .constdata          app_uart_fifo.o
    0x0002bbc8   0x0002bbc8   0x00000010   Data   RO         3400    .constdata          nrf_fprintf_format.o
    0x0002bbd8   0x0002bbd8   0x00000018   Data   RO         3520    .constdata          nrf_pwr_mgmt.o
    0x0002bbf0   0x0002bbf0   0x0000000c   Data   RO         3521    .constdata          nrf_pwr_mgmt.o
    0x0002bbfc   0x0002bbfc   0x0000013c   Data   RO         3687    .constdata          nrf_strerror.o
    0x0002bd38   0x0002bd38   0x0000000c   Data   RO         3762    .constdata          nrf_log_backend_rtt.o
    0x0002bd44   0x0002bd44   0x0000000c   PAD
    0x0002bd50   0x0002bd50   0x00000006   Data   RO         3763    .constdata          nrf_log_backend_rtt.o
    0x0002bd56   0x0002bd56   0x00000002   PAD
    0x0002bd58   0x0002bd58   0x0000000c   Data   RO         3918    .constdata          nrf_log_frontend.o
    0x0002bd64   0x0002bd64   0x00000010   Data   RO         4398    .constdata          nrf_sdh.o
    0x0002bd74   0x0002bd74   0x00000028   Data   RO         4399    .constdata          nrf_sdh.o
    0x0002bd9c   0x0002bd9c   0x00000010   Data   RO         4400    .constdata          nrf_sdh.o
    0x0002bdac   0x0002bdac   0x00000010   Data   RO         4401    .constdata          nrf_sdh.o
    0x0002bdbc   0x0002bdbc   0x00000020   Data   RO         4509    .constdata          nrf_sdh_ble.o
    0x0002bddc   0x0002bddc   0x00000010   Data   RO         4510    .constdata          nrf_sdh_ble.o
    0x0002bdec   0x0002bdec   0x00000010   Data   RO         4560    .constdata          nrf_sdh_soc.o
    0x0002bdfc   0x0002bdfc   0x0000000c   Data   RO         4561    .constdata          nrf_sdh_soc.o
    0x0002be08   0x0002be08   0x00000081   Data   RO         4642    .constdata          mc_w.l(ctype_o.o)
    0x0002be89   0x0002be89   0x00000003   PAD
    0x0002be8c   0x0002be8c   0x00000004   Data   RO         4643    .constdata          mc_w.l(ctype_o.o)
    0x0002be90   0x0002be90   0x00000144   Data   RO          916    .conststring        ble_db_discovery.o
    0x0002bfd4   0x0002bfd4   0x0000013e   Data   RO         1034    .conststring        nrf_ble_gatt.o
    0x0002c112   0x0002c112   0x00000002   PAD
    0x0002c114   0x0002c114   0x000003eb   Data   RO         3688    .conststring        nrf_strerror.o
    0x0002c4ff   0x0002c4ff   0x00000001   PAD
    0x0002c500   0x0002c500   0x00000066   Data   RO         4079    .conststring        nrf_log_str_formatter.o
    0x0002c566   0x0002c566   0x00000002   PAD
    0x0002c568   0x0002c568   0x000001cf   Data   RO         4511    .conststring        nrf_sdh_ble.o
    0x0002c737   0x0002c737   0x00000001   PAD
    0x0002c738   0x0002c738   0x0000000c   Data   RO          917    .conststrlit        ble_db_discovery.o
    0x0002c744   0x0002c744   0x0000000d   Data   RO         1035    .conststrlit        nrf_ble_gatt.o
    0x0002c751   0x0002c751   0x00000003   PAD
    0x0002c754   0x0002c754   0x00000009   Data   RO         1152    .conststrlit        nrf_ble_scan.o
    0x0002c75d   0x0002c75d   0x00000003   PAD
    0x0002c760   0x0002c760   0x0000000a   Data   RO         1266    .conststrlit        ble_nus_c.o
    0x0002c76a   0x0002c76a   0x00000002   PAD
    0x0002c76c   0x0002c76c   0x00000006   Data   RO         1365    .conststrlit        nrf_drv_clock.o
    0x0002c772   0x0002c772   0x00000002   PAD
    0x0002c774   0x0002c774   0x00000007   Data   RO         1727    .conststrlit        nrfx_gpiote.o
    0x0002c77b   0x0002c77b   0x00000001   PAD
    0x0002c77c   0x0002c77c   0x00000004   Data   RO         1960    .conststrlit        nrfx_prs.o
    0x0002c780   0x0002c780   0x00000005   Data   RO         2040    .conststrlit        nrfx_uart.o
    0x0002c785   0x0002c785   0x00000003   PAD
    0x0002c788   0x0002c788   0x00000006   Data   RO         2227    .conststrlit        nrfx_uarte.o
    0x0002c78e   0x0002c78e   0x00000002   PAD
    0x0002c790   0x0002c790   0x00000006   Data   RO         2373    .conststrlit        nrfx_clock.o
    0x0002c796   0x0002c796   0x00000002   PAD
    0x0002c798   0x0002c798   0x00000009   Data   RO         3522    .conststrlit        nrf_pwr_mgmt.o
    0x0002c7a1   0x0002c7a1   0x00000003   PAD
    0x0002c7a4   0x0002c7a4   0x00000010   Data   RO         3853    .conststrlit        nrf_log_default_backends.o
    0x0002c7b4   0x0002c7b4   0x00000004   Data   RO         3919    .conststrlit        nrf_log_frontend.o
    0x0002c7b8   0x0002c7b8   0x00000008   Data   RO         4402    .conststrlit        nrf_sdh.o
    0x0002c7c0   0x0002c7c0   0x0000000c   Data   RO         4512    .conststrlit        nrf_sdh_ble.o
    0x0002c7cc   0x0002c7cc   0x0000000c   Data   RO         4562    .conststrlit        nrf_sdh_soc.o
    0x0002c7d8   0x0002c7d8   0x00000020   Data   RO         4699    Region$$Table       anon$$obj.o
    0x0002c7f8   0x0002c7f8   0x00000010   Data   RO         3855    log_backends        nrf_log_default_backends.o
    0x0002c808   0x0002c808   0x00000008   Data   RO          919    log_const_data      ble_db_discovery.o
    0x0002c810   0x0002c810   0x00000008   Data   RO         1036    log_const_data      nrf_ble_gatt.o
    0x0002c818   0x0002c818   0x00000008   Data   RO         1153    log_const_data      nrf_ble_scan.o
    0x0002c820   0x0002c820   0x00000008   Data   RO         1267    log_const_data      ble_nus_c.o
    0x0002c828   0x0002c828   0x00000008   Data   RO         1366    log_const_data      nrf_drv_clock.o
    0x0002c830   0x0002c830   0x00000008   Data   RO         1728    log_const_data      nrfx_gpiote.o
    0x0002c838   0x0002c838   0x00000008   Data   RO         1962    log_const_data      nrfx_prs.o
    0x0002c840   0x0002c840   0x00000008   Data   RO         2041    log_const_data      nrfx_uart.o
    0x0002c848   0x0002c848   0x00000008   Data   RO         2228    log_const_data      nrfx_uarte.o
    0x0002c850   0x0002c850   0x00000008   Data   RO         2375    log_const_data      nrfx_clock.o
    0x0002c858   0x0002c858   0x00000008   Data   RO         3524    log_const_data      nrf_pwr_mgmt.o
    0x0002c860   0x0002c860   0x00000008   Data   RO         3922    log_const_data      nrf_log_frontend.o
    0x0002c868   0x0002c868   0x00000008   Data   RO         4404    log_const_data      nrf_sdh.o
    0x0002c870   0x0002c870   0x00000008   Data   RO         4514    log_const_data      nrf_sdh_ble.o
    0x0002c878   0x0002c878   0x00000008   Data   RO         4563    log_const_data      nrf_sdh_soc.o
    0x0002c880   0x0002c880   0x00000014   Data   RO         3923    nrf_balloc          nrf_log_frontend.o
    0x0002c894   0x0002c894   0x00000004   Data   RO           12    pwr_mgmt_data1      main.o
    0x0002c898   0x0002c898   0x00000008   Data   RO           13    sdh_ble_observers1  main.o
    0x0002c8a0   0x0002c8a0   0x00000010   Data   RO          360    sdh_ble_observers1  communication.o
    0x0002c8b0   0x0002c8b0   0x00000008   Data   RO          676    sdh_ble_observers1  bsp_btn_ble.o
    0x0002c8b8   0x0002c8b8   0x00000008   Data   RO          361    sdh_ble_observers2  communication.o
    0x0002c8c0   0x0002c8c0   0x00000008   Data   RO          362    sdh_ble_observers3  communication.o
    0x0002c8c8   0x0002c8c8   0x00000008   Data   RO         1367    sdh_soc_observers0  nrf_drv_clock.o
    0x0002c8d0   0x0002c8d0   0x00000008   Data   RO         4515    sdh_stack_observers0  nrf_sdh_ble.o
    0x0002c8d8   0x0002c8d8   0x00000008   Data   RO         4564    sdh_stack_observers0  nrf_sdh_soc.o
    0x0002c8e0   0x0002c8e0   0x00000008   Data   RO         1368    sdh_state_observers0  nrf_drv_clock.o


    Execution Region RW_IRAM1 (Exec base: 0x200029e0, Load base: 0x0002c8e8, Size: 0x00003618, Max: 0x0000d620, ABSOLUTE, COMPRESSED[0x00000048])

    Exec Addr    Load Addr    Size         Type   Attr      Idx    E Section Name        Object

    0x200029e0   COMPRESSED   0x000002cc   Data   RW          358    .data               communication.o
    0x20002cac   COMPRESSED   0x00000012   Data   RW          359    .data               communication.o
    0x20002cbe   COMPRESSED   0x00000002   PAD
    0x20002cc0   COMPRESSED   0x00000010   Data   RW          574    .data               bsp.o
    0x20002cd0   COMPRESSED   0x00000008   Data   RW          675    .data               bsp_btn_ble.o
    0x20002cd8   COMPRESSED   0x00000010   Data   RW          918    .data               ble_db_discovery.o
    0x20002ce8   COMPRESSED   0x0000000c   Data   RW         1495    .data               nrf_drv_uart.o
    0x20002cf4   COMPRESSED   0x00000008   Data   RW         1961    .data               nrfx_prs.o
    0x20002cfc   COMPRESSED   0x00000008   Data   RW         2374    .data               nrfx_clock.o
    0x20002d04   COMPRESSED   0x00000004   PAD
    0x20002d08   COMPRESSED   0x00000020   Data   RW         2492    .data               app_button.o
    0x20002d28   COMPRESSED   0x00000014   Data   RW         2791    .data               app_timer.o
    0x20002d3c   COMPRESSED   0x0000001c   Data   RW         2946    .data               app_uart_fifo.o
    0x20002d58   COMPRESSED   0x00000008   Data   RW         3523    .data               nrf_pwr_mgmt.o
    0x20002d60   COMPRESSED   0x00000001   Data   RW         3764    .data               nrf_log_backend_rtt.o
    0x20002d61   COMPRESSED   0x00000003   PAD
    0x20002d64   COMPRESSED   0x00000008   Data   RW         3854    .data               nrf_log_default_backends.o
    0x20002d6c   COMPRESSED   0x00000008   Data   RW         3920    .data               nrf_log_frontend.o
    0x20002d74   COMPRESSED   0x00000008   Data   RW         3921    .data               nrf_log_frontend.o
    0x20002d7c   COMPRESSED   0x00000040   Data   RW         4080    .data               nrf_log_str_formatter.o
    0x20002dbc   COMPRESSED   0x00000003   Data   RW         4403    .data               nrf_sdh.o
    0x20002dbf   COMPRESSED   0x00000001   Data   RW         4513    .data               nrf_sdh_ble.o
    0x20002dc0   COMPRESSED   0x00000004   Data   RW         4603    .data               system_nrf52.o
    0x20002dc4        -       0x00000014   Zero   RW           10    .bss                main.o
    0x20002dd8        -       0x00000434   Zero   RW          356    .bss                communication.o
    0x2000320c        -       0x00000020   Zero   RW          569    .bss                bsp.o
    0x2000322c        -       0x00000020   Zero   RW          570    .bss                bsp.o
    0x2000324c        -       0x0000000c   Zero   RW          571    .bss                bsp.o
    0x20003258        -       0x00000020   Zero   RW          572    .bss                bsp.o
    0x20003278        -       0x00000318   Zero   RW          914    .bss                ble_db_discovery.o
    0x20003590        -       0x00000014   Zero   RW         1360    .bss                nrf_drv_clock.o
    0x200035a4        -       0x0000005c   Zero   RW         1722    .bss                nrfx_gpiote.o
    0x20003600        -       0x0000002c   Zero   RW         2035    .bss                nrfx_uart.o
    0x2000362c        -       0x00000024   Zero   RW         2222    .bss                nrfx_uarte.o
    0x20003650        -       0x00000020   Zero   RW         2490    .bss                app_button.o
    0x20003670        -       0x0000010c   Zero   RW         2789    .bss                app_timer.o
    0x2000377c        -       0x00000020   Zero   RW         2944    .bss                app_uart_fifo.o
    0x2000379c        -       0x0000000c   Zero   RW         3019    .bss                app_util_platform.o
    0x200037a8        -       0x0000000c   Zero   RW         3519    .bss                nrf_pwr_mgmt.o
    0x200037b4        -       0x00000040   Zero   RW         3761    .bss                nrf_log_backend_rtt.o
    0x200037f4        -       0x000000c0   Zero   RW         3914    .bss                nrf_log_frontend.o
    0x200038b4        -       0x00000080   Zero   RW         3915    .bss                nrf_log_frontend.o
    0x20003934        -       0x00000018   Zero   RW         3916    .bss                nrf_log_frontend.o
    0x2000394c        -       0x00000424   Zero   RW         3917    .bss                nrf_log_frontend.o
    0x20003d70        -       0x00000288   Zero   RW         4156    .bss                segger_rtt.o
    0x20003ff8        -       0x00002000   Zero   RW         4591    STACK               arm_startup_nrf52.o


==============================================================================

Image component sizes


      Code (inc. data)   RO Data    RW Data    ZI Data      Debug   Object Name

       444         38          8         32         32      13002   app_button.o
        22          0          0          0          0       2449   app_error.o
       132         46          0          0          0      30569   app_error_weak.o
       118          0          0          0          0       4814   app_fifo.o
      1510        118          6         20        268      47987   app_timer.o
       440         46         32         28         32      15027   app_uart_fifo.o
       124         14          0          0         12       9494   app_util_platform.o
        36          8        512          0       8192        916   arm_startup_nrf52.o
       238          0          0          0          0      44439   ble_advdata.o
      1818        190        468         16        792      15518   ble_db_discovery.o
       316         96         58          0          0      15257   ble_nus_c.o
       358         40          8          0          0      13623   boards.o
       998         84         44         16        108      15335   bsp.o
       252         10          8          8          0       4640   bsp_btn_ble.o
       874        356         56        734       1076       7077   communication.o
       280         82         12          0         20     133528   main.o
       294          0          0          0          0       7587   nrf_atomic.o
       164          0          0          0          0       3496   nrf_balloc.o
      1684        784        361          0          0      36975   nrf_ble_gatt.o
       972        134         17          0          0       9703   nrf_ble_scan.o
       276         34         30          0         20      37712   nrf_drv_clock.o
       200         26          0         12          0      17880   nrf_drv_uart.o
        50          0          0          0          0       3425   nrf_fprintf.o
       866          4         16          0          0       5382   nrf_fprintf_format.o
       112         18         18          1         64       5789   nrf_log_backend_rtt.o
       200          0          0          0          0       2937   nrf_log_backend_serial.o
        28          4         32          8          0       3193   nrf_log_default_backends.o
      1688        118         44         16       1404      31519   nrf_log_frontend.o
       570        108        102         64          0       5392   nrf_log_str_formatter.o
       346          0          0          0          0       9311   nrf_memobj.o
       108         16         53          8         12      36266   nrf_pwr_mgmt.o
        28          0          0          0          0       2259   nrf_ringbuf.o
       384         46        104          3          0      38911   nrf_sdh.o
       724        232        539          1          0       5733   nrf_sdh_ble.o
        60          4         56          0          0       2360   nrf_sdh_soc.o
        78          0          0          0          0       2660   nrf_section_iter.o
        76         10       1319          0          0       2631   nrf_strerror.o
       222         30         14          8          0      13691   nrfx_clock.o
      1222         92         19          0         92      60575   nrfx_gpiote.o
        94         16         12          8          0       3697   nrfx_prs.o
      1358         36         17          0         44      58604   nrfx_uart.o
      1192         38         18          0         36      23987   nrfx_uarte.o
       378         34          0          0        648       8793   segger_rtt.o
       796         70          0          4          0       2963   system_nrf52.o

    ----------------------------------------------------------------------
     22174       2982       4072        996      12852     817106   Object Totals
         0          0         32          0          0          0   (incl. Generated)
        44          0         57          9          0          0   (incl. Padding)

    ----------------------------------------------------------------------

      Code (inc. data)   RO Data    RW Data    ZI Data      Debug   Library Member Name

        86          0          0          0          0          0   __dczerorl2.o
         8          4        133          0          0         68   ctype_o.o
         0          0          0          0          0          0   entry.o
         0          0          0          0          0          0   entry10a.o
         0          0          0          0          0          0   entry11a.o
         8          4          0          0          0          0   entry2.o
         4          0          0          0          0          0   entry5.o
         0          0          0          0          0          0   entry7b.o
         0          0          0          0          0          0   entry8b.o
         8          4          0          0          0          0   entry9a.o
        30          0          0          0          0          0   handlers.o
        36          8          0          0          0         68   init.o
        30          0          0          0          0         68   llshl.o
        32          0          0          0          0         68   llushr.o
        26          0          0          0          0         80   memcmp.o
        36          0          0          0          0         68   memcpya.o
        36          0          0          0          0        108   memseta.o
        18          0          0          0          0         68   strcpy.o
        14          0          0          0          0         68   strlen.o
        98          0          0          0          0         92   uldiv.o

    ----------------------------------------------------------------------
       474         20        136          0          0        756   Library Totals
         4          0          3          0          0          0   (incl. Padding)

    ----------------------------------------------------------------------

      Code (inc. data)   RO Data    RW Data    ZI Data      Debug   Library Name

       470         20        133          0          0        756   mc_w.l

    ----------------------------------------------------------------------
       474         20        136          0          0        756   Library Totals

    ----------------------------------------------------------------------

==============================================================================


      Code (inc. data)   RO Data    RW Data    ZI Data      Debug   

     22648       3002       4208        996      12852     792186   Grand Totals
     22648       3002       4208         72      12852     792186   ELF Image Totals (compressed)
     22648       3002       4208         72          0          0   ROM Totals

==============================================================================

    Total RO  Size (Code + RO Data)                26856 (  26.23kB)
    Total RW  Size (RW Data + ZI Data)             13848 (  13.52kB)
    Total ROM Size (Code + RO Data + RW Data)      26928 (  26.30kB)

==============================================================================

